:020000040800F2
:10000000A059002071020008B32E0008611D0008ED
:10001000B12E0008A10300085532000800000000BE
:10002000000000000000000000000000B101000816
:100030008B040008000000000D020008BD2E00081F
:100040008B0200088B0200088B0200088B0200085C
:100050008B0200088B0200088B0200088B0200084C
:100060008B0200088B0200088B0200088B0200083C
:10007000A50300088B0200088B0200088B02000811
:100080008B0200088B0200088B02000800000000B1
:100090000000000000000000000000008B020008CB
:1000A0008B0200088B0200088B0200088B020008FC
:1000B0008B0200088B0200088B020008651D0008F7
:1000C0008B0200088B0200088B0200088B020008DC
:1000D0008B0200083D3200088B020008000000007F
:1000E0008B0200088B0200088B0200080000000051
:1000F0000000000000000000000000008B0200086B
:10010000000000008B0200088B0200088B02000830
:1001100000000000000000000000000000000000DF
:100120008B020008B10300088B0200088B02000854
:100130008B0200080000000000000000000000002A
:100140000000000000000000000000008B0200081A
:100150008B0200088B0200088B020008493200085D
:100160008B0200088B020008000000000000000065
:10017000000000000000000000000000000000007F
:10018000000000008B0200080000000000000000DA
:100190008B0200088B020008DFF810D000F0EEF8A8
:1001A00000480047C1320008AFF30080A05900208A
:1001B0002C4B19680868B0E8F04F80F30988BFF34A
:1001C0006F8F4FF0000080F311887047000000002F
:1001D00008480068006880F308884FF0000080F34A
:1001E000148862B661B6BFF34F8FBFF36F8F00DF25
:1001F00000BF00BF08ED00E0DFF80C00016841F42B
:1002000070010160704700BF88ED00E0EFF30980E6
:10021000BFF36F8F134B1A681EF0100F08BF20ED4D
:10022000108A20E9F04F106009B44FF0500080F3BD
:100230001188BFF34F8FBFF36F8F03F0D3FF4FF0E1
:10024000000080F3118809BC19680868B0E8F04F15
:100250001EF0100F08BFB0EC108A80F30988BFF3BE
:100260006F8F704734000020EFF305807047000067
:100270000648804706480047FEE7FEE7FEE7FEE740
:10028000FEE7FEE7FEE7FEE7FEE7FEE76D2F00086C
:10029000990100082DE9F05F0546002092469B4633
:1002A00088460646814640241BE02846414647468C
:1002B000224600F053F853465A46C01A914110D3D3
:1002C00011461846224600F03AF82D1A67EB01084D
:1002D0004F4622460120002100F031F817EB0009BB
:1002E0004E41201EA4F10104DFDC484631462A4677
:1002F0004346BDE8F09F40EA01039B0703D009E0B5
:1003000008C9121F08C0042AFAD203E011F8013B01
:1003100000F8013B521EF9D27047D2B201E000F85A
:10032000012B491EFBD270470022F6E710B5134699
:100330000A4604461946FFF7F0FF204610BD202A62
:1003400004DB203A00FA02F1002070479140C2F12C
:10035000200320FA03F3194390407047202A04DB5E
:10036000203A21FA02F00021704721FA02F3D0402E
:10037000C2F120029140084319467047064C074DD0
:1003800006E0E06840F0010394E807009847103465
:10039000AC42F6D3FFF704FFD44C0008F44C00083D
:1003A000FEE70000014800F0D1B80000700B00200B
:1003B000014800F0CBB800006C0C00200168CAB204
:1003C000103A1823B2FBF3F2064B9B5CC3656FF344
:1003D0000901032A02D9091D816500E08165806D4C
:1003E00070470000A84C000810B5014600208A6A3A
:1003F0008B694FF0C074002B0ED0B3F5005F1AD09C
:1004000062B3012A2AD0022A28D0032A03D1C96A5A
:10041000C90100D5012010BD1AB1012A06D0022A57
:10042000F9D1C96AC901F6D5012010BDC96AA14236
:10043000FBD1012010BD52B1012A0AD0022A06D0F8
:10044000032AF7D1C96AA142F4D1012010BD0120CD
:1004500010BDC96AC901FBD5012010BD012010BD26
:1004600030B50468256825F480252560046863603C
:100470008368402B04D0036899600068C26030BD77
:1004800003689A600068C16030BD704772B6FEE7CD
:100490002DE9F0410446A76D00F0BEFA054694F838
:1004A00035000026022806D08020606584F834607C
:1004B0000120BDE8F0812068016821F0160101608B
:1004C0002068416921F080014161206C08B9A06C6D
:1004D00020B12068016821F00801016020680168EE
:1004E00021F0010101600BE000F096FA401B0528A5
:1004F00006D9202034342062032060702670D8E7AB
:1005000020680068C007EFD134343F2094F82810E9
:100510008840B8600120607026700020C9E790F81C
:100520003510022903D08021416501207047052143
:1005300080F835100068016821F001010160002099
:100540007047406D704790F8350070472DE9F843CB
:1005500004464FF00009CDF800906F484FF4165153
:100560000068B0FBF1F7A56D2E6894F85C000822D6
:1005700002FA00F1314210D02068016849070CD519
:10058000016821F00401016094F85C0002FA00F1B6
:10059000A960606D40F00100606594F85C104FF058
:1005A000010808FA01F0304208D0216849690906BB
:1005B00004D5A860606D40F00200606594F85C109E
:1005C00004208840304208D021680968890704D592
:1005D000A860606D40F00400606594F85C10102025
:1005E0008840304220D02168096809071CD5A860DE
:1005F0002068016849030CD50068000304D4216C0D
:1006000091B1204688470FE0A16C69B12046884728
:100610000AE00168C90503D4016821F008010160FE
:10062000216C09B12046884794F85C10202088404E
:1006300030424CD021680968C90648D5A86094F8B2
:10064000350005280BD020680168490330D50068C3
:10065000000328D4616C51B32046884737E02068F6
:10066000016821F0160101602068416921F08001D4
:100670004161206C08B9A06C20B12068016821F0AC
:100680000801016094F85C103F208840A86084F85D
:10069000358084F83490216D00293BD001B020468C
:1006A000BDE8F0430847E16B09B1204688470EE0FA
:1006B0000168C90507D4016821F01001016084F8C0
:1006C000358084F83490E16B09B120468847606D2D
:1006D00000281FD0606DC00714D0052084F83500B5
:1006E0002068016821F0010101600098401C009021
:1006F000B84203D820680068C007F6D184F8358076
:1007000084F83490E16C002904D001B02046BDE8A3
:10071000F0430847BDE8F883300000202DE9F041A0
:10072000044600F079F905465CB1022084F83500F2
:10073000002684F834602068016821F0010101601E
:100740000DE00120BDE8F08100F066F9401B0528AE
:1007500005D920206065032084F83500F2E7206881
:100760000068C007F0D121680A6820480240D4E937
:1007700001031843D4E903352B4318436369184335
:10078000A3691843E3691843236A18431043626A54
:10079000042A03D1D4E90B231A43104308602068CC
:1007A000406920F00700656A2946054301270429AE
:1007B0000DD1A06A0543E06A48B12046FFF714FE58
:1007C00028B14020606584F835700120BAE72068C0
:1007D00045612046FFF7F2FD94F85C203F219140EF
:1007E0008160666584F835700020ABE73F8010F0CB
:1007F0002DE9F04104460025A66D94F83400012847
:100800000DD0012084F8340094F835700020012FB9
:1008100007D084F8340002252846BDE8F081022084
:10082000FBE7022784F8357060652046FFF718FE65
:1008300094F85C103F208840B0602068016841F067
:1008400016010160206C20B12068016841F00801A8
:1008500001602068016841F001010160DCE70000EF
:100860002DE9F84F0022DFF880914FF001080327AF
:100870004FF00F0C09F1040AA9F1040B08FA02F574
:100880000B682B40AB426ED10C7904F00304012CB1
:1008900001D0022C15D18668540007FA04FE26EA1E
:1008A0000E06D1F80CE00EFA04FE4EEA060EC0F871
:1008B00008E04468AC430D79C5F300159540254325
:1008C00045600C79E443A40708D0C568540007FAD2
:1008D00004F6B5438E68A6402E43C6600C7904F03A
:1008E0000304022C11D1D40800EB8406356A5407A6
:1008F000E40E0CFA04FE25EA0E05D1F810E00EFA1B
:1009000004FE4EEA050EC6F820E00568540007FA1A
:1009100004F6B5430E7906F00306A6402E430660A2
:100920004C6814F4403F58D0304C256845F480455D
:100930002560246804F4804400942D4C22F00305C3
:100940002E19D6F8085894074FEA147E0CFA0EF4C4
:10095000A543284CA04201D1002415E0264CA0421A
:1009600002D1012410E038E0244CA04201D102243D
:100970000AE0234CA04201D1032405E0214CA0420F
:1009800001D1042400E0072404FA0EF42C43C6F835
:100990000848D9F800409C434D68ED0200D51C433F
:1009A000C9F80040DAF800409C434D68AD0200D51C
:1009B0001C43CAF80040DBF800409C434D68AD037F
:1009C00000D51C43CBF80040074D083D2C689C43E4
:1009D0004E68F60300D51C432C60521C102AFFF40D
:1009E0004DAFBDE8F88F0000083C0140443802409C
:1009F00000300140000002400004024000080240B4
:100A0000000C024000100240002A01D081617047B2
:100A10000904816170470000014880687047000048
:100A200024000020704770472DE9F0410546002161
:100A30002B685A68EE6A95F83E4095F83D00102CF8
:100A400005D0402C03D02C6CECB35C696EE09F6940
:100A50005969C9435FEAC17C05D0B6F52A0F7CD03D
:100A6000B6F12A4F79D0CE070AD1D643B60507D4BE
:100A7000284601F07DF92846BDE8F04101F0E2BDCD
:100A80000E0707D4D643B60504D42846BDE8F04186
:100A900001F0F8BC8E0707D4D643B60504D4284627
:100AA000BDE8F04101F004BDFE43760723D45B6846
:100AB0001B0552D40B060BD4D3435B0508D44B075C
:100AC00006D5284600E02FE0BDE8F04101F07BBCF0
:100AD000490775D4D143890572D4212806D0402C0A
:100AE0006ED12846BDE8F04101F0FCBD2846BDE8C6
:100AF000F04101F023BC5868000561D4480609D4D0
:100B0000D043400506D4480704D52846BDE8F04147
:100B100001F09FBB480753D4D043800550D42846EA
:100B2000BDE8F04101F00FBB99695C69E443A60799
:100B30000AD4D643B60507D4286C00B19969284673
:100B4000BDE8F04101F0F0BEE10609D4D1438905CA
:100B500006D42846BDE8F04100E031E001F008BFCE
:100B600021280DD029280BD060061FD4D043400582
:100B70001CD460071AD52846BDE8F04101F082BEBA
:100B8000200609D4D043400506D4600704D5284682
:100B9000BDE8F04101F0A6BE600711D4D043800546
:100BA0000ED42846BDE8F04101F08EBE600707D4A0
:100BB000D043800504D42846BDE8F04101F054BE7E
:100BC000BDE8F0817047000070B50446002C04D0E9
:100BD00094F83D00002510B106E0012070BD84F8B6
:100BE0003C50204600F076FA242084F83D0020682E
:100BF000016821F0010101602068016841F40041B1
:100C000001602068016821F40041016000F036FCB9
:100C10004F4B6168994203D84E49884203D304E0A0
:100C20004D49884201D2012070BD4C49B0FBF1F121
:100C30002268566826F03F060E43566062689A4264
:100C400001D8491C07E04FF4967251434FF47A7271
:100C5000B1FBF2F1491C2268166A26F03F063143C7
:100C600011626168994210D84900401EB0FBF1F250
:100C7000521CC2F30B02042A01D2042022E0B0FB72
:100C8000F1F0401CC0F30B001CE0A268F2B301EBD2
:100C9000C10303EB0116431EB3FBF6F35B1C43F4E5
:100CA00080431B0549D092B301EBC10202EB011155
:100CB000401EB0FBF1F0401CC0F30B0040F480403C
:100CC00040F400402168CA694CF6FF739A43104310
:100CD000C861D4E9071001432068026822F0C0020D
:100CE00011430160D4E9030101432068826848F29E
:100CF000FF339A4311438160D4E905100143206812
:100D0000C26822F0FF021143C16001E00EE016E06C
:100D10002068016841F0010101602564202084F809
:100D20003D00256384F83E50002070BD01EB410674
:100D3000431EB3FBF6F35B1CB3E70120C2E701EBF4
:100D40004101401EB0FBF1F0401CC0F30B00B7E7BF
:100D5000A086010080841E0000093D0040420F0073
:100D6000704770471CB50948417800290CD0084AE3
:100D70000078802102EBC010CDE900010123402260
:100D80007821044800F0D6F81CBD000000000020C7
:100D9000FC0200201C0B0020F8B50446002500953D
:100DA00094F83D00202801D00220F8BD4E4846F2BC
:100DB000A8160068B0FBF6F000EBC00606EB0010CA
:100DC000009020260098401E0090009880B1206876
:100DD0008069C0438007F5D594F83C00012811D004
:100DE000012084F83C0020680768FF070CD00FE062
:100DF00044F8305F6673A573206940F020002061DD
:100E00000220F8BD0220F8BD076847F0010707601F
:100E10002068076827F400670760212084F83D00F8
:100E2000102084F83E00256462626385608D208511
:100E30002E48E0626164208DF0B3606BF0B12C4904
:100E4000C163616B2B48C864606B0564606B45646B
:100E5000606B8564606B05652268238D1032616A62
:100E6000606BFFF7C5FC98B13C346670A570606894
:100E700040F01000606025700120F8BD3C346670C1
:100E8000A570606840F08000606025700120F8BDAA
:100E900084F83C502068416841F44071416020680A
:100EA000416841F4006141602068016841F480615B
:100EB00001602068016800E003E041F48071016096
:100EC00010E02068016841F48061016020680168D9
:100ED00041F48071016084F83C502068416841F41D
:100EE000E06141600020F8BD300000200000FFFFFD
:100EF0008F1E0008491E0008704700000A49087844
:100F000007280DD04A78002A0DD0401CC0B20870C6
:100F10000649042301EB800278210548FFF73CBF16
:100F2000002048700870704700000020FC0A002074
:100F30001C0B00202DE9FE4F0446DDF830B088463A
:100F400091469A4600250295FFF766FD074694F8FC
:100F50003D00202802D00220BDE8FE8F59480168DC
:100F600046F2A810B1FBF0F000EBC00101EB00105D
:100F7000029020260298401E0290029880B12068BC
:100F80008069C0438007F5D594F83C00012811D052
:100F9000012084F83C0020680168C9070CD00FE0EC
:100FA00044F8305F6673A573206940F0200020612B
:100FB0000220D1E70220CFE7016841F00101016082
:100FC0002068016821F400610160212084F83D005F
:100FD000402084F83E002564C4F824B00D98608554
:100FE000608D20853848E062C4F84480C4F8489099
:100FF000C4F84CA02565208D002858D0606BF0B156
:101000003249C163616B3248C864606B0564606BD0
:101010004564606B8564606B05652268238D1032C2
:10102000616A606BFFF7E4FB98B13C346670A570B1
:10103000606840F010006060257001208CE73C344F
:101040006670A570606840F08000606025700120C7
:1010500082E72320CDE9000753464A464146204611
:1010600001F0A0FB90B1606BFFF759FA606BC563AC
:101070002068016821F4806101602585658520680C
:10108000016821F001010160012065E720684169E4
:101090008169019184F83C50416841F4807141605C
:1010A0002068416841F400614160002054E73C340D
:1010B0006670A570606840F0400060602570012097
:1010C0004AE70000300000200000FFFF8F1E0008EC
:1010D000491E000870B586B00646142101A8FFF726
:1010E00023F92249306888423ED100252048016812
:1010F00041F002010160006800F002000090C02091
:101100000190122002900395032004900420059082
:1011100001A91848FFF7A4FB15481030016841F4F5
:1011200000110160006800F400100090134C124898
:10113000206065604020A060E5600001206165617D
:10114000A561E561256265622046FFF7E7FA08B10F
:10115000FFF79CF97463A663002205211F2000F0AD
:10116000AFF81F2000F09EF806B070BD005400409C
:10117000303802400004024028600240700B00201A
:101180007047704770B50446002C13D021684CF6A8
:10119000CC400860216845F255500860D4E9001041
:1011A00048602168A0688860FFF736FC054641F674
:1011B00001060CE0012070BDFFF72EFC401BB04281
:1011C00005D92068C068800701D0032070BD206861
:1011D000C0688007F0D121684AF6AA200860002084
:1011E00070BD000002488168027811448160704738
:1011F0002400002010B50B48016841F40071016023
:10120000016841F480610160016841F4807101600E
:10121000032000F075F80F2000F006F800F026F823
:10122000002010BD003C024070B504460D4D4FF447
:101230007A712878B1FBF0F00B490968B1FBF0F046
:1012400000F052FB08B1012070BD102C07D2002223
:101250002146501E00F034F86C60002070BD012063
:1012600070BD0000240000203000002082B00C4837
:10127000016841F480410160006800F48040019001
:101280000748001F016841F080510160006800F0CC
:101290008050019000220F21901E02B000F010B883
:1012A00044380240002809DB00F01F020121914070
:1012B0004009800000F1E020C0F8001170470000F4
:1012C000F0B40D460D4B1B68C3F30223C3F10704B2
:1012D000042C00D90424191D072901D2002300E0A1
:1012E000DB1E012606FA04F1491E294099409E4062
:1012F000761E16403143F0BC01F0ADBF0CED00E0AE
:1013000000F00701054A10684FF6FF03184040EA55
:101310000120034908431060704700000CED00E015
:101320000000FA052DE9F04704460D46002C13D0C5
:10133000DFF82891D9F80000EFB200F00700A842CA
:101340000CD289F80070D9F8000000F00700A8421C
:1013500004D00120BDE8F0870120FBE72068404E63
:10136000810712D5400703D5306840F4E050306063
:101370002078000703D5306840F460403060306862
:10138000A16820F0F000084330602078C00731D019
:10139000334960680839012808D002280BD0032897
:1013A00009D0096889070BD40120D3E709688903AC
:1013B00006D40120CEE70968890101D40120C9E7DC
:1013C000316821F0030101433160FFF725FB8046BE
:1013D00041F2883A07E0FFF71FFBA0EB08005045F9
:1013E00001D90320B6E73068616800F00C00B0EB6B
:1013F000810FF0D1D9F8000000F00700A84209D908
:1014000089F80070D9F8000000F00700A84201D068
:1014100001209FE72078400705D53068E16820F477
:10142000E050084330602078000706D53068216915
:1014300020F4604040EAC100306000F03FF83168BD
:10144000084AC1F30311515CC840074908600748C6
:101450000068FFF7E9FE00207CE70000003C024046
:1014600008380240B04C000830000020280000205E
:1014700001480068704700003000002000B5FFF709
:10148000F7FF04490968044AC1F38221515CC8404E
:1014900000BD000008380240C04C000800B5FFF74E
:1014A000E7FF04490968044AC1F34231515CC8406E
:1014B00000BD000008380240C04C000810B51748B5
:1014C000006810F00C01164816D0164B042912D0F3
:1014D000082911D1114C241F216801F03F02216815
:1014E00049020AD52068C0F38810A0FB030100233D
:1014F000FEF7D0FE09E0184610BD21680023C1F3B5
:101500008811A1FB0001FEF7C5FE2168C1F301416E
:10151000491C4900B0FBF1F010BD00000838024042
:101520000024F40040787D012DE9F84F0446002C9A
:1015300013D02078DFF8A083C007A8F1040556D0A7
:1015400008F104000168C1F3810101290CD0006891
:10155000C0F38100022803D00DE00120BDE8F88F20
:10156000D8F80000400206D5286880033FD560689F
:1015700070BB0120F2E76068B0F5803F10D0B0F595
:10158000A02F12D0286820F480302860286820F42A
:10159000802028606068E0B1FFF73EFA064614E05C
:1015A000286840F480302860F4E7286840F4802000
:1015B0002860286840F480302860EBE7FFF72CFAB9
:1015C000801B642801D90320C8E728688003F5D56B
:1015D0000DE0FFF721FA064606E0FFF71DFA801B33
:1015E000642801D90320B9E728688003F5D420785E
:1015F000BA4F80074FF0000948D5B748001D016871
:1016000011F00C0F08D00068C0F38100022813D13C
:10161000D8F8000040020FD42868800704D5E0689D
:10162000012801D0012099E72868216920F0F800FD
:1016300040EAC100286029E0E068B8B101203860C4
:10164000FFF7EAF9064606E0FFF7E6F9801B0228F5
:1016500001D9032082E728688007F5D52868216929
:1016600020F0F80040EAC10028600FE0C7F80090C1
:10167000FFF7D2F9064606E0FFF7CEF9801B0228F5
:1016800001D903206AE728688007F5D4207800078D
:1016900029D5DFF844A2924861690AF1700A89B13C
:1016A00001210160FFF7B8F9064606E0FFF7B4F93B
:1016B000801B022801D9032050E7DAF800008007D8
:1016C000F4D510E0C0F80090FFF7A6F9064606E052
:1016D000FFF7A2F9801B022801D903203EE7DAF8C0
:1016E00000008007F4D42078400778D54FF0000A36
:1016F00079483C300068C0000BD477483C30016822
:1017000041F080510160006800F0805000904FF07F
:10171000010ADFF8D0B1DBF80000C00514D4DBF813
:10172000000040F48070CBF80000FFF775F9064622
:1017300006E0FFF771F9801B022801D903200DE7AD
:10174000DBF80000C005F4D5634EA0686C360128B4
:101750000FD0052812D0306820F0010030603068CA
:1017600020F004003060A068F8B1FFF755F9834617
:1017700017E0306840F001003060F4E7306840F076
:1017800004003060306840F001003060EBE7FFF7A4
:1017900043F9A0EB0B0141F28830814201D90320CB
:1017A000DCE630688007F2D510E0FFF735F98346B4
:1017B00009E0FFF731F9A0EB0B0141F288308142DB
:1017C00001D90320CAE630688007F2D4BAF1010FCC
:1017D00005D141483C30016821F080510160A06989
:1017E000C0B33D49091D09684FF0FF36C1F38101BF
:1017F000022946D0022805D0C7F86090FFF70CF9FF
:1018000004463AE0C7F86090FFF706F9814607E022
:10181000FFF702F9A0EB0900022801D903209DE699
:1018200028688001F4D4D4E907010843616AA26AF8
:10183000890106EB520241EA0241084394F82C1058
:1018400040EA0160C8F8000001203866FFF7E4F8BC
:10185000044607E03DE0FFF7DFF8001B022801D94E
:1018600003207BE628688001F5D532E0FFF7D4F845
:10187000001B022801D9032070E628688001F5D4F6
:1018800027E0012823D0D8F80000E26900F48001A5
:1018900091421AD1226A00F03F01914215D147F6D8
:1018A000C071626A0140B1EB821F0ED1A26A00F4DE
:1018B000403106EB5202B1EB024F06D194F82C10E6
:1018C00000F07060B0EB016F03D0012046E601200C
:1018D00044E6002042E6000004380240000047428F
:1018E000800E47420070004010B5401EB0F1807F6E
:1018F00001D3012010BD4FF0E02460610F2160177B
:1019000001F0A9FC0020A06107202061002010BD8B
:10191000034B02689A4201D102F046BA70470000B8
:101920000010014000B589B001680A68D243D307AE
:101930004FF0000204D180F840200B684B680893F8
:101940000B68DB439B0704D480F840200B684B688E
:1019500008930B68DB435B0704D480F840200B68D6
:101960004B6808930B68DB431B0704D480F84020C6
:10197000086848680890084881420BD10748C0F8B9
:101980001422C0F8182201A9002001F083FC01A84C
:1019900001F090FC09B000BD00100140B40000202F
:1019A000F8B5044622681068D168536900F00F0644
:1019B000002E08D1850606D58D0604D52046BDE843
:1019C000F84001F01CBB0025002E66D003F0010694
:1019D00001F49077374360D0C20705D0CA0503D51C
:1019E000626C42F001026264420705D5DA0703D057
:1019F000626C42F002026264820705D5DA0703D006
:101A0000626C42F004026264020707D501F0200212
:101A1000324303D0626C42F008026264626C002AB6
:101A200031D0800604D5880602D5204601F0E7FAB9
:101A300020684069C0F38010616C090700D438B396
:101A4000204601F0A8FA2068406940061CD52068AD
:101A5000143050E8001F21F0400140E80012002A35
:101A6000F5D1E06B60B15F490165E06BFEF757FDB2
:101A7000002808D0E06B016D01B0BDE8F0400847D8
:101A80002046FFF74FFFF8BD2046FFF74BFFF8BD9C
:101A90002046FFF747FF6564F8BD236B012B7DD11E
:101AA000C3067BD5CB0679D5106850680090506985
:101AB0004FF0200340064FF002064FD5E26B10684E
:101AC000406880B2DF00E8B3A18D81423BD9E08558
:101AD000D069B8422DD020680C3050E8001F21F4A6
:101AE000807140E80012002AF5D12068143050E8D7
:101AF000001F21F0010140E80012002AF5D1206802
:101B0000143050E8001F21F0400140E80012002A84
:101B1000F5D184F84230256320680C3050E8001F6E
:101B200021F0100140E80012002AF5D1E06BFEF729
:101B3000AFFC6663A08DE18D401A81B22046FFF7AD
:101B4000E7FEF8BDFFE7A18D8142FAD1D069B84226
:101B5000F7D166632046FFF7DBFEF2E7A08DE18D4B
:101B6000401A81B2E08D0028EBD00029E9D020682E
:101B70000C3050E8002F22F4907240E80027002F2C
:101B8000F5D12068143050E8002F22F0010240E81F
:101B90000027002FF5D184F8423000E00FE02563E4
:101BA00020680C3050E8002F22F0100240E800239B
:101BB000002BF5D166632046FFF7AAFEC1E70206B7
:101BC00006D50A0604D52046BDE8F84001F006BB5C
:101BD0004006B6D54806B4D52046BDE8F84001F029
:101BE00001BA0000892F000870B50446002C04D00B
:101BF00094F84100002510B106E0012070BD84F882
:101C00004050204600F024F8242084F84100206849
:101C1000C16821F40051C160204601F055FA2068E6
:101C2000016921F4904101612068416921F02A0194
:101C300041612068C16841F40051C16065642020A1
:101C400084F8410084F842006563002070BD000004
:101C5000F0B587B00646142102A8FEF765FB3A49A5
:101C6000DFF8E0C030680025374A14390223032723
:101C7000364C604524D1106840F0100010601068A8
:101C800000F010000190086840F00100086008684A
:101C900000F00100019078020290039304950597EB
:101CA0000720069002A92046FEF7DAFD0022052152
:101CB0002520FFF705FB2520FFF7F4FA07B0F0BD5C
:101CC000DFF88CC06045F9D1106840F0200010604A
:101CD000106800F020000190086840F001000860E2
:101CE000086800F0010001904FF4C0500290039387
:101CF000049505970820069002A92046FEF7B0FD3E
:101D0000154C1448206080056060A560E5604FF4C4
:101D1000806020616561A5618010E0612562656277
:101D20002046FEF7FBFC08B1FEF7B0FBF463A663A8
:101D3000002205214720FFF7C3FA4720FFF7B2FA38
:101D4000BCE700000010014044380240000002409F
:101D500000140140286402406C0C0020704770475A
:101D6000FEE700000148FEF75FBE00001C0B0020EC
:101D7000C16AB1F52A0F06D0C16AB1F12A4F01D16B
:101D80000821C16270470121C162704738B5002245
:101D9000806B90F83D302B4946F2A8140968B1FBDE
:101DA000F4F1C1EBC10101EB81010091009969B32C
:101DB0000099491E0091016809688905F6D4416BB4
:101DC00001B1CA63816B01B1CA6301680C6824F474
:101DD00080640C604285416B01B10A65816B01B181
:101DE0000A6501680C6824F001040C6090F83D104D
:101DF000202460290FD0282535EA030113D080F86C
:101E00003D4080F83E20FEF7DDFE38BD016C41F01C
:101E100020010164D3E780F83D4080F83E20026451
:101E2000FEF700FE38BD01680B6843F001030B604C
:101E300001680B6843F480630B60026380F83D50D7
:101E4000E1E700003000002070B501468C6B0025F2
:101E5000606B002800D0C563A06B00B1C563084665
:101E6000FEF76FFB022811D02068016821F4806121
:101E700001606585202084F83D0084F83E50206C88
:101E800040F0100020642046FEF79CFE70BD2DE956
:101E9000F041846B94F83D1094F83E50E06A22685B
:101EA000536823F440735360626B0023002A00D010
:101EB000D363A26B02B1D363212737EA01064FF047
:101EC00022020CD032EA010601D1202D07D094F86D
:101ED0003E10002921D0618D012920D024E0206806
:101EE000456825F40065456063852820292902D0CE
:101EF0002A2907D00CE0276384F83D002046FFF72D
:101F000040F905E0226384F83D002046FFF738F9E8
:101F10002068416841F440714160BDE8F08121686A
:101F20000A6822F480620A6021684A6822F44072DA
:101F30004A6010F5803F06D0082804D0B0F12A4F3F
:101F400001D0202804D121680A6842F400720A6096
:101F500021684A6822F480524A6021684A6822F463
:101F600000624A606385216C19B12046FEF72AFEA3
:101F7000D3E7202184F83D1094F83E1040290BD07F
:101F800084F83E3008280ED020280CD01220206380
:101F90002046FEF7E6FEC0E784F83E302363204685
:101FA000FEF7AAFFB9E72363F2E700684169C94376
:101FB000090601D4002101617047000070B5044694
:101FC00094F83D0094F83E10102901D0402906D124
:101FD000222804D121680A6822F400620A602821BC
:101FE00031EA00024FF000054FF0200628D02168AA
:101FF0004968090505D4602803D084F83D6084F859
:102000003E50256320684168090539D5416821F4AF
:1020100000614160606B90F835203D49012A13D082
:102020000165606BFEF77BFA48B32068016821F018
:102030000101016084F83D60606B016D884730E00C
:10204000256384F83D10DDE7A06B0165A06BFEF70A
:1020500066FAA0B120684169C943490605D4006900
:10206000616A0870606A401C60622068016821F043
:102070000101016084F83D60A06B016D884710E0AC
:1020800094F83D10602910D04169C943490605D430
:102090000069616A0870606A401C60622046FEF751
:1020A00091FD206CC1071CD115E084F83D602564CA
:1020B0004169C943490605D40069616A0870606ACC
:1020C000401C60622068016821F001010160204627
:1020D000FEF7A8FCE5E7810703D4410701D4000718
:1020E00004D52068416821F4E061416094F83D0026
:1020F000216C49070BD5282809D10648E0622563E1
:1021000084F83D6084F83E502046FEF729FE70BDFD
:102110008D1D00080000FFFF01684A69D243520587
:102120000FD46FF480624A61002140F8301F2022F2
:1021300042738173026942F004020261017301205B
:1021400070470020704710B5C26A438D0168042BA8
:102150000FD0438D032B1BD0438D022B30D0096948
:10216000426A1170416A491C4162418D491E418594
:1021700010BD4A6822F480624A6001680969426AB7
:102180001170416A491C4162418D491E418510BD53
:102190004B6823F480634B60042A06D0022A04D0E3
:1021A00001680A6822F480620A6001680969426A6B
:1021B0001170416A491C4162418D491E418510BD23
:1021C000012A34D0102A32D0042A35D0022A33D042
:1021D0000B6843F400730B6001680969436A197066
:1021E000416A491C4162438D5B1E438503681B693C
:1021F0000B70416A491C4162418D491E418501684D
:102200004B6823F440734B60202180F83D1090F818
:102210003E300021402B14D080F83E10082A16D002
:10222000202A14D012210163FEF79BFD10BD0B681C
:1022300023F480630B60CFE70B6843F480630B608B
:10224000CAE780F83E100163FEF756FE10BD016339
:10225000EAE770B5044694F83D00222815D1E56AF6
:10226000608D032812D920680069616A0870606A6D
:10227000401C6062608D401E6085608D032804D123
:102280002068416821F48061416070BDE16A0229E3
:1022900002D0012806D028B12068416821F480616D
:1022A000416070BD204600F0CDFC20220021B0B17D
:1022B0002068436823F4E063436020680069636A30
:1022C0001870606A401C6062608D401E608584F8F2
:1022D0003D2084F83E102046FEF774FC70BD206857
:1022E000036823F4806303602068436823F4E06399
:1022F000436020680069636A1870606A401C60620D
:10230000608D401E608584F83D2094F83E00402892
:102310000BD084F83E10082D0ED0202D0CD01220AA
:1023200020632046FEF71DFD70BD84F83E1021633A
:102330002046FEF7E1FD70BD2163F2E710B5C16AEA
:1023400090F83D20212A0BD1428D52B1416A02689A
:1023500009781161416A491C4162418D491E4185DC
:1023600010BD20230022082912D0202910D011F5F9
:10237000803F0DD001684C6824F4E0644C6011216A
:10238000016380F83E2080F83D30FEF7EBFC10BD85
:1023900001684C6824F4E0644C6001680C6844F403
:1023A00000740C60026380F83D3090F83E104029C4
:1023B00004D080F83E20FEF7D5FC10BD80F83E200A
:1023C000FEF79CFD10BD10B590F83D1090F83E3022
:1023D000C26A048D002C01D1212916D0212903D0F5
:1023E000402B11D122290FD1418DD9B390F83E1045
:1023F000402943D0416A026809781161416A491C49
:102400004162418D491E418510BD20240023082AC8
:1024100012D0202A10D012F5803F0DD001684A68F2
:1024200022F4E0624A601121016380F83E3080F8B6
:102430003D40FEF797FC10BD01684A6822F4E06257
:102440004A6001680A6842F400720A60036380F817
:102450003D4090F83E10402905D080F83E30FEF710
:1024600081FC10BD04E080F83E30FEF747FDF8E740
:102470000068416821F480614160F2E7BDE81040E6
:1024800000F030B9416C0268C9B21161416B00299A
:1024900001D0C96B29B9816B002907D0C96B00290C
:1024A00004D00068416841F4006141607047000059
:1024B00078B590F83E40C26A056B90F83D60002305
:1024C0000168222E03D048698869009078BD066DA6
:1024D0000EB9402C02D0046D24B107E04869886928
:1024E000009078BD0469B4F5404F1BD0448D24B3EF
:1024F000468D534C012E28D0458D022D69D00D6894
:1025000045F480650D6001684D682D0509D5A2422E
:102510006FD0012A6DD0082A6BD0102A69D0202AEA
:1025200067D086E04A698A6900920A6842F480723C
:102530000A60016D491C016578BD4A698A6900928B
:102540000A6842F400720A6077E0A24218D10A6871
:1025500022F480620A6001684A68120508D50A6898
:1025600022F480620A6001684A698969009164E026
:102570004A698A6900920A6842F400720A605CE063
:10258000082A05D0202A03D0122D0ED1012A0CD002
:102590000A6822F480620A6001684A698A690092C6
:1025A0000A6842F400720A6047E0042A08D0022A4E
:1025B00006D0102A04D00A6822F480620A6003E080
:1025C0000A6842F480620A6001684A698969009178
:1025D00033E0042A0ED0022A0CD0102A0AD00D684B
:1025E00025F480650D6001680D6845F400650D6097
:1025F00004E01AE00D6845F480650D6001684D68DF
:102600002D050DD5A24207D0012A05D0082A03D0F6
:10261000102A01D0202A03D14A6842F480524A602D
:1026200001684A698969009107E04A6842F480526A
:102630004A6001684A6989690091036578BD0000B4
:102640000000FFFF90F83E10402911D00169B1F55C
:10265000804F1CD0016D79B3016D012907D1416C08
:10266000006801F44071F12242EAD1110161704722
:10267000016D31B1416C0068C9B241F001010161E5
:102680007047416C006801F0FE010161704790F8ED
:102690003D1021290AD0416C0268C9B241F0010104
:1026A0001161416B49B1C96B69B906E0416C0268BF
:1026B00001F0FE011161F4E70BE0816B0029E5D028
:1026C000C96B0029E2D00068416841F400614160B3
:1026D0007047416C006801F44071F02242EAD11168
:1026E0000161704710B590F83D10026D002A09D0C5
:1026F000026D012A1AD0026D022A1FD0BDE81040D7
:10270000FFF753BCC16C012908D0816C0268C1F38A
:1027100007211161016D491C016510BD816C0268C2
:10272000C9B21161016D891C016510BD816C02681F
:10273000C9B21161016D491C016510BD22291CD06F
:10274000428D0AB1212921D0428D002AF5D12129BB
:10275000F3D101684A6822F4E0624A6001680A68BD
:1027600042F400720A6000210163202280F83D20BB
:1027700080F83E10FEF7C2FB10BD01680A6842F403
:1027800080720A60016D491C016510BD416A0268D2
:1027900009781161416A491C4162418D491E418598
:1027A00010BD00002DE9F8430446DDE908970D4609
:1027B000164698462068016841F4807101604B46D6
:1027C00000224FF001112046009700F081F948B136
:1027D00020680068C00502D54FF400702064032013
:1027E000BDE8F883216805F0FE0008613B464A46D3
:1027F0001C49204600F0C2F908B10120F0E720682A
:102800004169806900903A464946204600F038FA0E
:1028100048B1206C042804D12068016841F400719B
:1028200001600120DCE7F5B2B8F1010F0CD021689E
:10283000300A08613A464946204600F021FA68B15C
:10284000206C042803D007E02068056108E02068B8
:10285000016841F4007101600120C1E72068056151
:102860000020BDE702000100418D002909D0016868
:102870000969426A1170416A491C4162418D491ED1
:102880004185704710B590F83D10428D002A1AD04E
:1028900002681269436A1A70426A521C4262428D8F
:1028A000521E4285428D002A0DD12A290BD1016882
:1028B0004A6822F480624A6022210163282180F85C
:1028C0003D10FEF75DFC10BD418D002909D0416A25
:1028D000026809781161416A491C4162418D491EB3
:1028E0004185704710B590F83D10428D002A1AD0EE
:1028F000426A036812781A61426A521C4262428D2F
:10290000521E4285428D002A0DD129290BD1016822
:102910004A6822F480624A6021210163282180F8FC
:102920003D10FEF72EFC10BD38B50C46002190F886
:102930003D202825954302680B4605D051699169D1
:10294000009180F83C3038BD556825F480655560AD
:10295000E243540700D50121120602D5828992B2C2
:1029600001E0028B92B280F83C30FEF75CF838BD93
:10297000F8B5044694F83D502068416821F4E061C0
:1029800041600026206841690091016841F0010121
:1029900001602068016821F480610160206841685D
:1029A000090520D5484F222D48D02A2D46D0616BED
:1029B000096849686185618D19B1216C41F0040194
:1029C0002164416821F400614160606BFDF7BBFD4B
:1029D000012808D0606B0765606BFDF7A0FD10B1A2
:1029E000606B016D8847608D08B320684169C943F9
:1029F000490708D40069616A0870606A401C606217
:102A0000608D401E608520684169C943490608D42D
:102A10000069616A0870606A401C6062608D401ED7
:102A20006085608D18B1206C40F004002064206C3B
:102A300010B32046BDE8F840FFF7C0BAA16B0968A3
:102A400049686185618D19B1216C41F004012164EF
:102A5000416821F400614160A06BFDF774FD01281D
:102A6000C1D0A06B0765A06BFDF759FD0028BAD057
:102A7000A06B016D8847B6E72A2D06D12663282072
:102A800084F83D002046FEF77BFB94F83D102020A3
:102A900028290DD0216B222901D0222D07D12663B0
:102AA00084F83D0084F83E602046FEF769FBF8BDDF
:102AB0000649E162266384F83D0084F83E602046C2
:102AC000FEF74EF9F8BD00008D1D00080000FFFF65
:102AD0002DE9F0470446DDF820900D4690461E464D
:102AE000C5F307472FE0701C2DD0FDF795FFA0EB35
:102AF0000900B04200D836BB012F17D0206880698A
:102B000025EA00000004000C1BD0002040451AD12B
:102B1000002044F8300F20216173A073216941F037
:102B20002001216120730120BDE8F0872068406901
:102B300025EA00000004000C01D00020E6E7012097
:102B4000E4E70120E2E7012F0BD02068806925EA45
:102B500000000004000C0FD000204045C3D000202E
:102B6000E2E72068406925EA00000004000C01D07B
:102B70000020F2E70120F0E70120EEE72DE9F04721
:102B800004460D46164698464FF000094FF0200ABD
:102B9000C5F3074743E020684069C043400517D4A8
:102BA0002068016841F40071016021686FF4806061
:102BB0004861C4F8309084F83DA084F83E90206CC1
:102BC00040F00400206484F83C900120BDE8F087C8
:102BD000701C24D0FDF720FFA0EB0800B04200D805
:102BE000EEB9012F14D02068806925EA00000004A6
:102BF000000C14D0C4F8309084F83DA084F83E90C6
:102C0000206C40F02000206484F83C900120DDE737
:102C10002068406925EA00000004000CEAD1012F79
:102C200008D02068806925EA00000004000CB2D1B9
:102C30000020CBE72068406925EA00000004000C72
:102C4000F6D0A8E708B50D4946F2A8120968B1FB0D
:102C5000F2F101EB810100910099491E0091009968
:102C600029B1016809688905F6D4002008BD016C06
:102C700041F020010164012008BD00003000002067
:102C800070B504460D4616461FE02046FFF744FA8D
:102C900008B1012070BD681C17D0FDF7BDFE801B78
:102CA000A84200D88DB920684069C04300060CD501
:102CB000002044F8300F20216173A073216941F096
:102CC000200121612073012070BD20684069C0434C
:102CD0000006DAD4002070BD08B51148016841F43F
:102CE00000110160016801F400110091016841F4D4
:102CF00080010160006800F480000090002205213E
:102D00000C20FEF7DDFA0C20FEF7CCFA002205219C
:102D10003920FEF7D5FABDE808403920FEF7C2BADF
:102D20003038024010B5044A0021044800F01EFB70
:102D30000349086010BD0000844C0008B52E00084F
:102D40002000002070B586B0142101A8FDF7ECFA30
:102D500000251D48016841F004010160016801F08F
:102D600004010091016841F080010160016801F0F7
:102D700080010091016841F001010160016801F0EA
:102D800001010091016841F002010160006800F05A
:102D90000200009001220D4E540321463046FDF7FB
:102DA00033FE0194012402940394049501A9304652
:102DB000FDF756FD792001900295039401A904487E
:102DC000FDF74EFD06B070BD3038024000080240ED
:102DD0000000024010B50D480B4901600C494160EC
:102DE00000218160C1604FF48042026141618161D4
:102DF000C1610162FDF7E8FE002803D0BDE8104084
:102E0000FDF744BB10BD0000005400401C0B002027
:102E1000A086010010B50948074901600021416002
:102E200040F6FF718160FEF7ADF9002803D0BDE8E0
:102E30001040FDF72BBB10BD00300040D00B002030
:102E400010B50C480A4901604FF4E131416000219E
:102E50008160C16001610C2242618161C161FEF744
:102E6000C3FE002803D0BDE81040FDF70FBB10BD26
:102E700000100140DC0B002010B50C480A4901602D
:102E80004FF4E131416000218160C16001610C2299
:102E900042618161C161FEF7A7FE002803D0BDE851
:102EA0001040FDF7F3BA10BD00140140240C0020BF
:102EB000FEE7FEE7012000F01BFAFBE710B5FEF786
:102EC00091F901F01DFD012803D0BDE8104001F08B
:102ED00037BA10BD30B593B0302107A8FDF724FAFA
:102EE000142102A8FDF720FA00251E48016841F0D0
:102EF00080510160006800F0805001901A4801681C
:102F000041F440410160006800F440400190092014
:102F100007904FF48030089001200C9002240D940B
:102F200080050E900C200F906020109011940420CA
:102F3000129007A8FEF7F8FA08B1FDF7A7FA0F20DC
:102F40000290039404954FF4805005900695032158
:102F500002A8FEF7E7F9002801D0FDF797FA13B0B1
:102F600030BD000040380240007000400548016854
:102F700041F47001016003494FF00060803908603E
:102F80007047000088ED00E010B5806B0021C1851E
:102F9000FEF7C8FC10BD01680C3151E8002F22F487
:102FA000907241E80023002BF5D10168143151E8FB
:102FB000002F22F0010241E80023002BF5D1016B24
:102FC000012909D101680C3151E8002F22F01002CB
:102FD00041E80023002BF5D1202180F84210002188
:102FE0000163704710B50168CA6822F04002CA60E8
:102FF000202180F84110FEF7B2FE002010BD08B578
:1030000090F84210222901D0022008BD82684FF4B6
:1030100080539A4201D1016921B1816A9A421DD03F
:1030200052B10BE0816A02685268C2F308020A805A
:10303000816A891C816209E002697AB1026852687A
:1030400002F07F020A70816A491C8162C18D491EAB
:103050000904090CC18505D0002008BD026852682A
:103060000A70F0E70168CA6822F02002CA600168AD
:10307000CA6822F48072CA6001684A6922F00102BB
:103080004A61202180F8421000214163026B012A2D
:1030900003D0FEF763FE002008BD016301680C3118
:1030A00051E8002F22F0100241E80023002BF5D157
:1030B00001680A68D20602D50A6849680091818DC4
:1030C000FEF726FCE7E700002DE9F0410446206802
:1030D0000169E26821F4405111430161A16820694E
:1030E000E26901436069104301432068C26849F204
:1030F0000C639A430A43C26020684169A26921F4C3
:1031000040711143416133492068884202D03249FD
:10311000884202D1FEF7C2F901E0FEF7AFF9E1699A
:103120000023192764253226B1F5004F28D06168A5
:103130008B0F8A00A0FB0701FDF7ACF80146B0FB3E
:10314000F5F07A42504301EB800006EB0010B0FB33
:10315000F5F000F0F002B1FBF5F002EB0012B1FB6C
:10316000F5F07B42584301EB800006EB0010B0FB0A
:10317000F5F0216800F00F0010448860BDE8F08190
:1031800061684A18A0FB07015B41FDF783F801461F
:10319000B0FBF5F00201B1FBF5F06FF018035843F6
:1031A00001EB800006EBC000B0FBF5F000F0F8008A
:1031B00002EB4002B1FBF5F0584301EB800006EB57
:1031C000C000B0FBF5F0216800F0070010448860F3
:1031D000D4E70000001001400014014090F84110B5
:1031E000212901D0022070478168B1F5805F01D1AB
:1031F000016961B1016A4A1C026202680978516082
:10320000C18C491E0904090CC1840AD013E0016A6B
:1032100002680988C1F308015160016A891C0162D2
:10322000EEE70168CA6822F08002CA600068C168DF
:1032300041F04001C1600020704700000148FEF7E6
:10324000AFBB0000DC0B00200148FEF7A9BB00006B
:10325000240C0020FEE70907090E002804DB00F11A
:10326000E02080F80014704700F00F0000F1E0202B
:1032700080F8141D704702E008C8121F08C1002A18
:10328000FAD170477047002001E001C1121F002AE7
:10329000FBD1704710B502460846002800D00AB19D
:1032A000012010BD02492022FDF725F8002010BDA5
:1032B000DC0200208068002800D000470120704711
:1032C00062B6FDF797FFFFF705FEFFF73BFDFFF73F
:1032D00003FDFFF7B5FDFFF79DFDFFF77BFDFFF752
:1032E000CBFD00F013F8FFF71DFD00F023F8FEE71B
:1032F00010B5EFF30581002902D06FF0050403E05B
:10330000002408B100F0B0FE204610BDEFF30580A8
:10331000002802D06FF0050070470548016811B120
:103320004FF0FF307047012101600020704700001E
:103330008400002010B5EFF30580002802D06FF064
:10334000050010BD07480168012902D04FF0FF3089
:1033500010BD054A002111700221016000F0F2FE4B
:10336000002010BD840000201FED00E02DE9FF4784
:103370000B464FF00008CDF80C80EFF3058199BBA8
:1033800090B3802618240025691E72B3176807B110
:103390003D46976907B13C46671E382F02D2177920
:1033A000FF0703D0002004B0BDE8F087576907B1DC
:1033B000BE08D2F808C0BCF1000F0CD0D2F80C90B7
:1033C000B9F15C0F07D3D2F81090B9F1000F02D019
:1033D0000FB101210BE0BCF1000F08D1D76837B95C
:1033E000176927B9002102E01BE0FFE7002101294E
:1033F00001D059B115E0916812690291CDE90042FE
:103400003246294601F04EFA03900AE003A9CDE9BD
:103410000041B2B2294601F013FA012801D0CDF8DB
:103420000C800398BFE700002DE9F04104460F46E9
:10343000134EF5683068001D00F0E0FC601C07D1F9
:1034400037B13168BDE8F041091D0E4800F026BDD6
:103450002C4430684460AC4206D23168B06B091D20
:10346000BDE8F04100F002BD3168706B091D00F04D
:10347000FDFCB06A844200D2B462BDE8F081000075
:1034800034000020BC11002070B5044600F012FD8D
:103490001C4DA868401CA860286810B1686938B144
:1034A0000CE02C60A868012808D100F099F905E02B
:1034B0002868E16AC06A884200D82C60686A401CAB
:1034C00068626064E06A2969884200D928610E490F
:1034D00000EB800001EB8000211D00F0DFFC00F01C
:1034E00009FD686900280CD02868E16AC06A884232
:1034F00007D206494FF080500860BFF34F8FBFF3EB
:103500006F8F70BD340000200C0D002004ED00E032
:1035100038B500F0CFFC104C2068C8B90F4800F057
:1035200097FC0E48143000F093FC0C48E060143017
:1035300020610A4B0020F03B009003F15002102163
:103540000A2000F013FF206010B105A100F056FD25
:10355000BDE8384000F0CEBC70000020C012002052
:10356000546D72510000000070B50C4D0C4E11E00E
:1035700000F0A0FCF068C468201D00F03FFCA868C3
:10358000401EA8606868401E686000F0B3FC2046DA
:1035900000F053F868680028EAD170BD34000020BC
:1035A000A811002030B40B46026C002A0CD0C16870
:1035B0001144C1608468A14201D30168C160C1683F
:1035C00030BC1846FCF797BE30BC70472DE9F0417F
:1035D000044617460026A56B226C002A10D0C7B1FE
:1035E000E068FCF788FEE168206C091AE160226857
:1035F000914202D2A168081AE060022F16D017E0AB
:103600002068A8B9A06801F0F5F906460020A0607E
:103610000EE06068FCF76FFE216C60680844606033
:10362000A168884204D32068606001E005B16D1E86
:103630006D1CA5633046BDE8F08110B5044694F8D2
:10364000590000280BD0012811D0022814D0502096
:1036500080F31188BFF34F8FBFF36F8FFEE7206BAE
:1036600000F05EFC2046BDE8104000F059BC20464A
:10367000BDE8104000F054BC10BD00000749CA6806
:103680001168002904D00021016019B100207047A1
:103690000121F9E7D0680068704700007000002041
:1036A0004FF470510F48420706D0C01D20F00700AC
:1036B0000C49411AC1F570510B4A10600023536048
:1036C0000144083921F00701183A11604B600B6082
:1036D0000B1A436001604068906050604FF00040FA
:1036E00050617047A0190020A0000020074E4FF045
:1036F0008054074DFFF738FF30680128FAD92C6055
:10370000BFF34F8FBFF36F8FF4E700000C0D002065
:1037100004ED00E070B51D46049C002909D022602C
:10372000E06321640121204600F056FE84F84C50ED
:1037300070BD2460F4E72DE9F05F8246DDE90A59A7
:103740000C9C0E4617469B46B900A522206BFCF741
:10375000E4FD206B7F1E00EB870020F00707780751
:1037600007D0502080F31188BFF34F8FBFF36F8FC6
:10377000FEE74FF0000866B100202218315C82F8A5
:103780003410315C11B1401C1028F6D384F843800A
:1037900001E084F83480382D00D33725E562E564F4
:1037A000C4F85080201D00F05EFB04F1180000F00A
:1037B0005AFB2461C5F13800A0616462C4F85480EA
:1037C00084F858805A465146384600F0A7FA2060DF
:1037D000B9F1000F01D0C9F80040BDE8F09F00002A
:1037E00070B50024114D04EB840005EB800000F05F
:1037F0002FFB641C382CF6D30D4800F029FB0C4835
:10380000143000F025FB0A48283000F021FB08485E
:103810003C3000F01DFB0648503000F019FB054815
:10382000034941631431816370BD00000C0D002019
:103830006C1100203400002030B5134900E011461F
:103840000A688242FBD34B685C18844203D140680B
:103850001844486008460D6844682318AB420DD1EF
:10386000094B183B1B689A4206D0526822444260BA
:103870000A681268026002E0036000E002608142B0
:1038800000D0086030BD0000A000002070B500240A
:10389000416000610C4D91420AD8D11A826991426F
:1038A00001D301240EE0011D286900F0DFFA09E0D0
:1038B0009A4203D2994201D3012403E0011DE86832
:1038C00000F0D4FA204670BD7000002010B5044608
:1038D00000F0F0FAA06B20B1002400F00BFB2046B2
:1038E00010BD0124F9E710B5044600F0E3FAA06B1F
:1038F000E16B884201D1012400E0002400F0FAFAD3
:10390000204610BDF8B505460E461748C068C06889
:10391000C468201D00F072FA94F82800410718D5F9
:10392000A0692B46411932462046FFF7AFFFA0B1F0
:1039300000200346014600902A46204601F06CF91B
:1039400058B9502080F31188BFF34F8FBFF36F8FAA
:10395000FEE720F0010084F82800216A01B020462B
:10396000BDE8F040084700007000002030B587B087
:103970003C4D6EE00398002803DADDE90420069947
:1039800090470398002864DB059C606910B1201DF6
:1039900000F034FA02A800F0AFF8024603980A28B3
:1039A00057D2DFE800F00505052D334A05052D3314
:1039B00094F8280040F0010084F828000498A169D8
:1039C000034601442046FFF761FF68B3216A2046A1
:1039D000884794F8280040073BD5002000900498C1
:1039E000A169002342181946204601F015F9D8B9FB
:1039F000502080F31188BFF34F8FBFF36F8FFEE726
:103A000014F8280F20F00100207022E094F828001C
:103A100040F0010084F828000498A06128B18118C2
:103A200013462046FFF732FF13E0502080F3118841
:103A3000BFF34F8FBFF36F8FFEE794F82800810725
:103A400003D4204600F06CFA03E020F0010084F873
:103A50002800002203A9286800F016FE002889D15A
:103A600007B030BD70000020F8B506460D4600F0E6
:103A7000B1FB684600F040F80446009810B101F030
:103A800033F8F8BD45B9A64206D801F02DF8214615
:103A90003046FFF737FFF8BD0C481DB101690968D2
:103AA00091B10025311B2A46006800F0B9FA01F0F7
:103AB0001BF80028EFD106494FF080500860BFF393
:103AC0004F8FBFF36F8FF8BD0125EBE7700000202B
:103AD00004ED00E00748416B0968002905D0416BFF
:103AE000C968C9684968816270474FF0FF318162D7
:103AF000704700003400002070B5054600F00EFF4E
:103B00000446074EB068844204D200F00BF801204E
:103B1000286001E000202860B460204670BD0000ED
:103B200070000020F8B51A4E20E0C0680568C4682F
:103B3000201D00F063F9216A2046884794F8280088
:103B4000400713D5A0692844A84206D960602461C3
:103B5000211DF06800F08AF908E0002003460146C4
:103B600000902A46204601F057F840B1F0680168FD
:103B70000029DAD1F0683169F1603061F8BD502078
:103B800080F31188BFF34F8FBFF36F8FFEE7000004
:103B90007000002009484068401C07D0502080F386
:103BA0001188BFF34F8FBFF36F8FFEE7502080F374
:103BB0001188BFF34F8FBFF36F8FFEE7A80000207F
:103BC00008B56846FFF75AFD0099FFF74DFFFFF76C
:103BD000CDFEF6E72DE9F041044600F06BF994F9CB
:103BE000455004F1240609E0606A48B1304600F00F
:103BF0003FFF08B100F068FA6D1E6DB2002DF3DCD6
:103C00004FF0FF3684F8456000F074F900F052F987
:103C100094F9445004F1100709E0206948B138468E
:103C200000F026FF08B100F04FFA6D1E6DB2002DB6
:103C3000F3DC84F84460BDE8F04100F05BB90000BB
:103C40002DE9F0410546002600F0C4FA324F3868ED
:103C500008B9FFF725FD786905424DD18DB10835CA
:103C600068070ED005F00700C0F10800054468079A
:103C700007D0502080F31188BFF34F8FBFF36F8FB1
:103C8000FEE7CDB37868854236D823491831084617
:103C9000046801E0214604466068A84202D2206818
:103CA0000028F7D13868844226D00E68083620688C
:103CB00008606068411B10290ED96019420707D0BF
:103CC000502080F31188BFF34F8FBFF36F8FFEE753
:103CD00041606560FFF7B0FD61687868401A786000
:103CE000BA68904200D2B8607869014361600020F0
:103CF0002060F868401CF86000F0F6FE700707D0FE
:103D0000502080F31188BFF34F8FBFF36F8FFEE712
:103D10003046BDE8F08100008800002024384FF0D4
:103D20008073036221F00101C16104498161426035
:103D30006FF0020140F8201970470000953B000821
:103D4000C2684168B2FBF1F301FB1323CB1A1A449A
:103D5000B2FBF1F301FB1321C160704710B5C168DC
:103D600042685308B1FBF3F403FB1413C3EB520294
:103D70001144C16010BD10B5C2684368B2FBF3F4D2
:103D800003FB14248C4207D9B2FBF3F403FB142485
:103D90001944091B114405E0B2FBF3F403FB14239F
:103DA000C91A1144C16010BD70B50246536B124C64
:103DB000002504F50370012B05D0536B3BB1526B0A
:103DC000022A09D00CE0FFF7C9FF257108E0FFF7D0
:103DD000B7FF0120207103E0FFF7CDFF0220207123
:103DE0002560A068002805D02179022902D1BDE80C
:103DF0007040004770BD0000B40000200169D0E9A8
:103E000001329A60D0E901235A604A68824201D1A6
:103E100082684A60002202610868401E08600868E3
:103E200070470000034B036003F15C0008608020D2
:103E300010607047E8120020044B036003F15C003F
:103E400008604FF480701060704700004415002037
:103E500000F1080141604FF0FF328260C1600161F2
:103E600000210160704700210161704730B50C6886
:103E7000621C02D000F1080202E0026904E01A4666
:103E800053681D68A542FAD953684B6099608A60EF
:103E9000516008610168491C016030BD42684A6098
:103EA00093688B6093685960916008610168491C50
:103EB00001607047502080F31188BFF34F8FBFF32C
:103EC0006F8F0A494868401C486001280CD1084897
:103ED000006810F0FF0F07D0502080F31188BFF367
:103EE0004F8FBFF36F8FFEE770470000A8000020E0
:103EF00004ED00E009494868002806D0401E4860EB
:103F0000002801D180F311887047502080F3118878
:103F1000BFF34F8FBFF36F8FFEE70000A8000020B4
:103F200070B500282AD008380446154D60686969C4
:103F3000084207D1502080F31188BFF34F8FBFF3A1
:103F40006F8FFEE722683AB1502080F31188BFF3EB
:103F50004F8FBFF36F8FFEE78843606000F03AF940
:103F600060686968084468602046FFF765FC286956
:103F7000401C2861BDE8704000F0B6BD70BD000077
:103F8000880000204FF0E020002101618161054997
:103F90004FF47A720968B1FBF2F1491E41610721C1
:103FA000016170473000002010B5FCF75DF9114940
:103FB00010280ED300F1E02090F8F0030A78904228
:103FC00007D2502080F31188BFF34F8FBFF36F8F5C
:103FD000FEE709480068896800F4E060884207D974
:103FE000502080F31188BFF34F8FBFF36F8FFEE730
:103FF00010BD0000A80000200CED00E010B500226C
:10400000064B53F832401CB1521C082AF9D310BD9C
:1040100043F8321003EBC201486010BDCC0C002005
:1040200070B504460D461646FFF744FF94F9443038
:104030004FF000005B1C01D184F8440094F9451056
:10404000491C01D184F84500FFF754FFA06B28B943
:104050003246294604F1240000F056F82046BDE817
:104060007040FFF7B7BD000010B502460020002ADF
:1040700012D00F48006B38B1502080F31188BFF385
:104080004F8FBFF36F8FFEE700F0A4F800211046BA
:10409000FFF7CAF900F028FD002807D105494FF0C5
:1040A00080500860BFF34F8FBFF36F8F10BD0000CB
:1040B0003400002004ED00E002490A6A0260C96889
:1040C000416070473400002001490120C8617047F9
:1040D0003400002010B50C4600280AD009490968B0
:1040E0001831FFF7C3FE2046BDE810400121FFF75D
:1040F0009BB9502080F31188BFF34F8FBFF36F8FB0
:10410000FEE700003400002070B50D46144600287C
:104110000DD00B4909681831FFF7C0FE0CB14FF004
:10412000FF3521462846BDE87040FFF77DB9502095
:1041300080F31188BFF34F8FBFF36F8FFEE700004E
:104140003400002030B587B000250695059504AAF7
:1041500005A906A8FFF766FEDDE90510CDE90051C7
:104160000290002317A11948049A00F09BFB184CF9
:10417000E06208B1012000E00020012801D100F038
:1041800017FD012809D0401C19D1502080F3118857
:10419000BFF34F8FBFF36F8FFEE7502080F311887E
:1041A000BFF34F8FBFF36F8F4FF0FF30A06201203E
:1041B0006061E56007B0BDE8304000F047B807B087
:1041C00030BD000049444C4500000000ED360008B9
:1041D000340000200248016B491C01637047000055
:1041E0003400002010B5174B186B002802D00120B6
:1041F000D86110BD0020D8611869134901E0C0B131
:10420000401E00EB800251F82220002AF7D000EB7C
:10421000800201EB82014A6852684A6001F1080499
:10422000A24201D152684A604968C96819601861A0
:1042300010BD502080F31188BFF34F8FBFF36F8FF5
:10424000FEE70000340000200C0D00201CB53748AC
:104250000168374A914207D1502080F31188BFF39B
:104260004F8FBFF36F8FFEE700683149491E8842C8
:1042700007D1502080F31188BFF34F8FBFF36F8FAA
:10428000FEE72C4908780190FF200870087800901C
:104290009DF800009DF8002000F0F000904207D04B
:1042A000502080F31188BFF34F8FBFF36F8FFEE76D
:1042B0009DF80000204C00F0500020700720A06006
:1042C00006E0A068401EA0609DF80000400000903D
:1042D0009DF800000006F4D4A068032807D0502001
:1042E00080F31188BFF34F8FBFF36F8FFEE74FF45A
:1042F0004070A060019808700C482030016841F4BB
:1043000070010160016841F070410160FFF73AFE01
:1043100000206060FBF770FF0848016841F04041F1
:104320000160FBF755FF00201CBD000000ED00E020
:1043300071C20F4100E400E0A800002034EF00E06B
:1043400010B5502080F31188BFF34F8FBFF36F8FEC
:1043500000F0EAFA18B104494FF0805008600020DC
:1043600080F3118810BD000004ED00E038B5049D15
:10437000002804D05BB102B189B1C2B120E0502065
:1043800080F31188BFF34F8FBFF36F8FFEE750208C
:1043900080F31188BFF34F8FBFF36F8FFEE750207C
:1043A00080F31188BFF34F8FBFF36F8FFEE739B1F2
:1043B000502080F31188BFF34F8FBFF36F8FFEE75C
:1043C000502400941C46012384F846302B46009468
:1043D000FFF7A0F9204638BD70B504460D46002C05
:1043E00025D0FFF767FDD4E90F20216802FB0011FB
:1043F000A1600021A16321686160E06B2268216CEB
:10440000401E00FB0121E1604FF0FF3084F84400C2
:1044100084F8450004F110008DB1FFF719FD04F197
:104420002400FFF715FDFFF765FD012070BD50204A
:1044300080F31188BFF34F8FBFF36F8FFEE72169C1
:104440000029F0D000F014FB0028ECD004494FF014
:1044500080500860BFF34F8FBFF36F8FE3E700001A
:1044600004ED00E02DE9FF4782B004468A461E466F
:104470000025002C03D0BAF1000F08D011E0502025
:1044800080F31188BFF34F8FBFF36F8FFEE7206C6F
:1044900038B1502080F31188BFF34F8FBFF36F8F77
:1044A000FEE7022E0AD1E06B012807D0502080F3EE
:1044B0001188BFF34F8FBFF36F8FFEE700F020FA34
:1044C00048B9049838B1502080F31188BFF34F8F5A
:1044D000BFF36F8FFEE74FF000094FF08057DFF812
:1044E000E480FFF7E7FCA06BE16B884205D3022E66
:1044F00003D0049808B325B327E03246514620463E
:10450000FFF764F8616A59B104F1240000F0B0FAD1
:1045100068B1C8F80070BFF34F8FBFF36F8F06E02C
:1045200028B1C8F80070BFF34F8FBFF36F8FFFF74C
:10453000E1FC012006B0BDE8F087FFF7DBFC0020BE
:10454000F8E76846FFF7B8FD0125FFF7D3FCFFF752
:1045500041FEFFF7AFFC94F94400401C01D184F800
:10456000449094F94500401C01D184F84590FFF730
:10457000C1FC04A9684600F025F930B12046FFF7D8
:1045800029FB00F0B1FA0020D4E72046FFF7ABF991
:1045900090B104F110000499FFF79CFD2046FFF74D
:1045A00019FB00F0A1FA00289BD1C8F80070BFF3F6
:1045B0004F8FBFF36F8F94E72046FFF70BFB00F0A0
:1045C00093FA8EE704ED00E02DE9F04704468946B2
:1045D00090461F46002C03D0B9F1000F08D011E01F
:1045E000502080F31188BFF34F8FBFF36F8FFEE72A
:1045F000206C38B1502080F31188BFF34F8FBFF388
:104600006F8FFEE7022F0AD1E06B012807D0502000
:1046100080F31188BFF34F8FBFF36F8FFEE7FFF773
:10462000C3FC5020EFF3118680F31188BFF34F8F46
:10463000BFF36F8FA06BE16B884206D3022F04D0CB
:10464000002086F31188BDE8F08794F94550A06BEF
:104650003A4649462046FEF7B9FF681C04D06D1C57
:1046600084F845500120ECE7606A0028FAD004F194
:10467000240000F0FDF90028F4D0B8F1000FF1D0CB
:104680000120C8F80000EDE72DE9F74783B00446A4
:104690008A460026002C03D0BAF1000F08D011E0A2
:1046A000502080F31188BFF34F8FBFF36F8FFEE769
:1046B000206C38B1502080F31188BFF34F8FBFF3C7
:1046C0006F8FFEE700F01CF948B9059838B150200B
:1046D00080F31188BFF34F8FBFF36F8FFEE7002782
:1046E0004FF08058DFF8D890FFF7E4FBA56BC5B119
:1046F00051462046FEF756FF6D1EA563206950B156
:1047000004F1100000F0B4F928B1C9F80080BFF33B
:104710004F8FBFF36F8FFFF7EDFB012006B0BDE8B1
:10472000F087059808B126B107E0FFF7E3FB00200A
:10473000F4E701A8FFF7C0FC0126FFF7DBFBFFF75A
:1047400049FDFFF7B7FB94F94400401C01D184F800
:10475000447094F94500401C01D184F84570FFF77E
:10476000C9FB05A901A800F02DF858B12046FFF7B4
:1047700031FA00F0B9F92046FFF7A8F80028B3D0C5
:104780000020CBE72046FFF7A1F890B104F1240008
:104790000599FFF79FFC2046FFF71CFA00F0A4F9EB
:1047A0000028A1D1C9F80080BFF34F8FBFF36F8FEE
:1047B0009AE72046FFF70EFA00F096F994E700001A
:1047C00004ED00E02DE9F04105460C46002D11D026
:1047D000C4B1FFF76FFB194EF0686B68C11A22680D
:1047E000571C17D02F68366AB74215D0834213D8AA
:1047F00001241DE0502080F31188BFF34F8FBFF3D9
:104800006F8FFEE7502080F31188BFF34F8FBFF307
:104810006F8FFEE700240BE08A4206D9501A206011
:104820002846FFF749FC002402E000202060012414
:10483000FFF760FB2046BDE8F08100003400002057
:104840002DE9FF5F8146DDE90E788A4616469B46D4
:10485000B000FFF7F5F9054628000AD05C20FFF705
:10486000EFF904460CB1256304E02846FFF758FB36
:1048700000E000249CB1002084F85900CDE90240FA
:10488000CDE900785B46324651464846FEF753FF75
:104890002046FEF7F9FD012004B0BDE8F09F4FF07F
:1048A000FF30F9E7F0B585B00746DDE90A600C9CFA
:1048B000002815D0E4B15C2503952063022084F81C
:1048C0005900002004ADCDE90240CDE9006538462D
:1048D000FEF731FF2046FEF7D7FD049805B0F0BD86
:1048E000502080F31188BFF34F8FBFF36F8FFEE727
:1048F000502080F31188BFF34F8FBFF36F8FFEE717
:1049000005484169002903D0006B18B100207047A9
:104910000120704702207047340000200148C06821
:1049200070470000340000202DE9F04100262F4F91
:10493000386B002805D0B869401CB8613046BDE826
:10494000F081FD686D1CFD609DB9786B006838B121
:10495000502080F31188BFF34F8FBFF36F8FFEE7B6
:10496000786BB96B7963B863386A401C3862FFF7BB
:10497000B1F8B86ADFF8788085420DD3786B0068AB
:1049800038B1786BC068C4686068854212D2B8627A
:1049900002E04FF0FF30B8623868C06A00EB800078
:1049A00058F82000012800D90126F8690028C5D050
:1049B0000126C3E7201DFFF721FAA06A18B104F110
:1049C0001800FFF71BFAE06A3969884200D938619C
:1049D00000EB800008EB8000211DFFF75FFAE06A22
:1049E0003968C96A8842C9D30126C7E73400002064
:1049F0000C0D002070B504460020002C2BD01A4D61
:104A000029688C4207D0502080F31188BFF34F8F64
:104A1000BFF36F8FFEE7216DF1B1491E2165E36C95
:104A2000E26A9A4217D0002915D1201DFFF7E6F956
:104A3000E06CE062C0F13800A061E06A2969884258
:104A400000D92861094900EB800001EB8000211D9D
:104A5000FFF724FA012070BD502080F31188BFF3C6
:104A60004F8FBFF36F8FFEE7340000200C0D002046
:104A700070B5C068C468002C14D004F11800064654
:104A8000FFF7BCF9154D2A6BA2B131461448FFF768
:104A900005FAE06A2968C96A88421CD90120012107
:104AA000E96170BD502080F31188BFF34F8FBFF3D1
:104AB0006F8FFEE7201DFFF7A1F9E06A29698842A0
:104AC00000D92861074900EB800001EB8000211D1F
:104AD000FFF7E4F9DDE7002070BD0000340000209E
:104AE000941100200C0D00202DE9F0410024002736
:104AF0002B4D286B002807D0FFF7DCF9286B401EF0
:104B00002863286B40B146E0502080F31188BFF342
:104B10004F8FBFF36F8FFEE7A868E0B3DFF88480A4
:104B200001261CE0D8F80C00C46804F11800FFF757
:104B300065F9201DFFF762F9E06A2969884200D90A
:104B40002861194900EB800001EB8000211DFFF76F
:104B5000A5F9E06A2968C96A884200D3EE61D8F8ED
:104B600000000028DED10CB1FEF7B4FFAC6944B1FF
:104B7000FFF7DAFE00B1EE61641E002CF8D10020D0
:104B8000A861E86938B10127084938070860BFF310
:104B90004F8FBFF36F8FFFF7ADF93846BDE8F08157
:104BA00034000020941100200C0D002004ED00E0E2
:104BB00030B587B00024FEF7ABFC134D2868B0B1C8
:104BC00000200690059004AA05A906A8FFF734F96D
:104BD000DDE905100222CDE90021029000230BA19E
:104BE0000C48049AFFF75EFE686000B1012414B11E
:104BF00007B0204630BD502080F31188BFF34F8F9F
:104C0000BFF36F8FFEE7000070000020546D72202C
:104C100053766300C13B00082DE9FF4106460A9F19
:104C20009C460020002E15D0154D2C68002C0ED06F
:104C300000910192029606291BDAFFF761FE022815
:104C400010D000231A4669462868FFF70BFC04B011
:104C5000BDE8F081502080F31188BFF34F8FBFF380
:104C60006F8FFEE700233A4669462868FFF7FAFB94
:104C7000EDE70023624669462046FFF7A5FCE6E71C
:104C800070000020C84C0008000000000000000078
:104C900000000000000000000002000018000000FA
:104CA00000000000000000000006101600061016AC
:104CB00000000000000000000102030406070809CC
:104CC000000000000102030464656661756C7454A1
:104CD00061736B00F44C000800000020B400000079
:104CE00076320008A84D0008B4000020EC580000FF
:104CF000863200080000AE001040B081FFA1A6A8D7
:104D00003FC8D300D580D805D9F1DA12DB308D1435
:104D1000AF200000000000000100000010000000B3
:104D2000000000000024F40000000000000000006B
:104D30000000000000000000000000000000000073
:104D40000000000000000000000000000000000063
:104D50000000000000000000000000000000000053
:104D60000000000000000000000000000000000043
:104D70000000000000000000000000000000000033
:104D80000000000000000000000000000000000023
:104D90000000000000000000000000000000000013
:084DA000AAAAAAAA0000000063
:040000050800019955
:00000001FF
