:020000040800F2
:1000000030100020390200085D1D0008451C000862
:10001000591D00081B0500083D23000800000000D2
:10002000000000000000000000000000631D000848
:100030001F05000800000000611D0008651D000884
:10004000530200085302000853020008530200083C
:10005000530200085302000853020008530200082C
:10006000530200085302000853020008530200081C
:10007000530200085302000853020008530200080C
:100080005302000853020008530200080000000059
:100090000000000000000000000000005302000803
:1000A00053020008530200085302000853020008DC
:1000B00053020008530200085302000853020008CC
:1000C00053020008530200085302000853020008BC
:1000D000530200082D23000853020008000000000E
:1000E00053020008530200085302000800000000F9
:1000F00000000000000000000000000053020008A3
:1001000000000000530200085302000853020008D8
:1001100000000000000000000000000000000000DF
:10012000530200085302000853020008530200085B
:100130005302000800000000000000000000000062
:100140000000000000000000000000005302000852
:10015000530200085302000853020008530200082B
:1001600053020008530200080000000000000000D5
:10017000000000000000000000000000000000007F
:100180000000000053020008000000000000000012
:10019000530200085302000800F002F800F03CF897
:1001A0000AA090E8000C82448344AAF10107DA45D2
:1001B00001D100F031F8AFF2090EBAE80F0013F0E8
:1001C000010F18BFFB1A43F001031847383800002D
:1001D00058380000103A24BF78C878C1FAD85207BE
:1001E00024BF30C830C144BF04680C6070470000B1
:1001F0000023002400250026103A28BF78C1FBD830
:10020000520728BF30C148BF0B6070471FB503F0CD
:100210008FFB1FBD10B510BD00F046F91146FFF76A
:10022000F5FF03F02BFB00F064F903B4FFF7F2FFD6
:1002300003BC00F06BF900000948804709480047FB
:10024000FEE7FEE7FEE7FEE7FEE7FEE7FEE7FEE786
:10025000FEE7FEE704480549054A064B70470000E3
:10026000251E000899010008300A002030100020E7
:10027000300C0020300C002053EA020C00F06980A2
:100280002DE9F04B4FF00006002B1FBFB3FA83F5AA
:1002900003FA05F424FA05F65E4012BF1643B2FADB
:1002A00082F502FA05F4C5F120051EBF22FA05FC0D
:1002B00044EA0C04203556EA044C4FEA144418BFB3
:1002C000641C4FF000084FF00009904271EB030CE2
:1002D00039D3002919BFB1FA81F701FA07F6B0FA4C
:1002E00080F700FA07F6C7F120071EBF20FA07FCC7
:1002F00046EA0C062037B6FBF4FCA7EB0507103FD7
:1003000007F01F0BCBF120060CFA0BFB2CFA06F6BC
:1003100044BFB3460026202FA4BF5E464FF0000B1B
:100320005BEA060C08BF4FF0010B19EB0B09ABFBA6
:10033000027C48EB0608C01B06FB02CC0BFB03CC7F
:1003400071EB0C01C1E70B46024641464846BDE849
:10035000F08B13B54FF000004FF00001AFF30080B9
:10036000BDE81C407047032A40F2308010F0030CB7
:1003700000F0158011F8013BBCF1020F624498BFF8
:1003800011F801CB00F8013B38BF11F8013BA2F195
:10039000040298BF00F801CB38BF00F8013B11F010
:1003A000030300F02580083AC0F0088051F8043BB0
:1003B000083A51F804CBA0E80810F5E7121D5CBF1D
:1003C00051F8043B40F8043BAFF30080D20724BF50
:1003D00011F8013B11F801CB48BF11F8012B24BFE4
:1003E00000F8013B00F801CB48BF00F8012B704733
:1003F00010B5203AC0F00B80B1E81850203AA0E8C0
:100400001850B1E81850A0E81850BFF4F5AF5FEAF3
:10041000027C24BFB1E81850A0E8185044BF18C9A6
:1004200018C0BDE810405FEA827C24BF51F8043B4D
:1004300040F8043B08BF7047D20728BF31F8023BA1
:1004400048BF11F8012B28BF20F8023B48BF00F835
:10045000012B70474FF0000200B5134694469646B4
:10046000203922BFA0E80C50A0E80C50B1F12001C7
:10047000BFF4F7AF090728BFA0E80C5048BF0CC075
:100480005DF804EB890028BF40F8042B08BF7047D3
:1004900048BF20F8022B11F0804F18BF00F8012B45
:1004A0007047704770477047754600F02BF8AE46AE
:1004B00005006946534620F00700854618B020B570
:1004C000FFF7C8FEBDE820404FF000064FF00007E0
:1004D0004FF000084FF0000B21F00701AC46ACE8EC
:1004E000C009ACE8C009ACE8C009ACE8C0098D4659
:1004F000704710B50446AFF300802046BDE81040B9
:10050000FFF793BE00487047CC090020014918202E
:10051000ABBEFEE726000200704700BFFEE7704753
:1005200072B600BFFEE7000010B5002201B909E075
:10053000012901D10A0205E0022901D10A0201E0E4
:100540004FF440720E4B1B6823F440730C4C236035
:1005500023461B681343236023461B6823F0F803DC
:10056000236023461B68022444EAC0042343044C4E
:10057000236023461B6843F48033236010BD0000D2
:10058000103C02401C48006800F40070B0B11A48EA
:10059000006820F400701849086000BF0846006831
:1005A00040F4006008600846006820F400600860BD
:1005B00000BF0846006840F4007008600E480068FC
:1005C00000F48060B0B10C48006820F480600A49F3
:1005D000086000BF0846006840F480500860084684
:1005E000006820F48050086000BF0846006840F4AE
:1005F0008060086070470000003C02400A4A1268B0
:1006000022F44072084B1A601A46126842F0040243
:100610001A601A4612684FF4803343EA00231A43E3
:10062000014B1A6070470000103C0240074A1268F4
:1006300022F44072054B1A601A4612681A601A4674
:10064000126842F001021A6001707047103C0240CB
:1006500010B50A49096821F44071084C216021460F
:10066000096841F4407121602146096841F00101A7
:1006700021600260BFF36F8F436010BD103C0240E9
:10068000084A126822F44072064B1A601A46126831
:1006900042F480721A601A46126842F001021A602F
:1006A00001807047103C0240084A126822F44072F0
:1006B000064B1A601A46126842F400721A601A4613
:1006C000126842F001021A6001607047103C02405B
:1006D0002A48006800F0100040B12948C06940F085
:1006E00010002749C8611020244908602348006889
:1006F00000F0200040B12248C06940F008002049C5
:10070000C86120201D4908601C48006800F04000B6
:1007100040B11B48C06940F004001949C86140203D
:10072000164908601548006800F0800040B1144880
:10073000C06940F002001249C86180200F4908607A
:100740000E48006800F4807048B10D48C06940F060
:1007500001000B49C8614FF48070084908600748E0
:10076000006800F0020040B10548C06940F0200078
:100770000349C86102200149086070470C3C0240EF
:100780000000002070B50446002500201449C8610F
:1007900000F0FAFA054609E0601C38B124B100F017
:1007A000F3FA401BA04201D9032070BD0D48006838
:1007B00000F480300028EFD10A48006800F0010002
:1007C00010B10120074908600648006800F4F9707C
:1007D00018B1FFF77DFF0120E7E70020E5E7000003
:1007E000000000200C3C024070B50446A56D00F0EE
:1007F000CBFA064694F83500022808D080206065C0
:1008000000BF002084F8340000BF012070BD2068C4
:10081000006820F01600216808602068406920F018
:10082000800021684861206C08B9A06C28B120685C
:10083000006820F00800216808602068006820F047
:1008400001002168086010E000F09EFA801B052876
:100850000BD920206065032084F8350000BF0020FC
:1008600084F8340000BF0320D0E72068006800F05F
:1008700001000028E8D194F85C103F208840A8606F
:10088000012084F8350000BF002084F8340000BF48
:1008900000BFBBE7014691F83500022803D0802055
:1008A000486501207047052081F835000868006818
:1008B00020F001000A6810600020F3E770B50446DC
:1008C00000F062FA06462546681C10B1044800781C
:1008D000054400BF00F058FA801BA842FAD370BD4F
:1008E000280000202DE9F04104460F46002600BFF5
:1008F0002548007E012802D10220BDE8F0810120B8
:100900002149087600BF4CF25030FFF73BFF054607
:10091000002D31D1401E3860206801280FD1207C85
:100920006168FFF76BFE4CF25030FFF72BFF054676
:100930001648006820F00400144908601AE0A66810
:1009400012E0217C3046FFF7EFFD4CF25030FFF70C
:1009500019FF05460D48006820F0FA000B490860B1
:100960000DB13E6005E0761CD4E902100844B042A7
:10097000E7D800BFFFF706FE00BF00200249087657
:1009800000BF2846B9E7000000000020103C0240EC
:100990000348006840F000400149086000207047AB
:1009A000103C02402DE9F0410646884614461D469B
:1009B00000BF1E48007E012802D10220BDE8F08160
:1009C00001201A49087600BF4CF25030FFF7DAFEDA
:1009D00007461FBB26B9E1B24046FFF727FE12E0EB
:1009E000012E04D1A1B24046FFF74AFE0BE0022ED1
:1009F00004D121464046FFF757FE04E022462B462D
:100A00004046FFF725FE4CF25030FFF7BBFE07468D
:100A10000748006820F001000549086000BF002079
:100A20000249087600BF3846C8E7000000000020F1
:100A3000103C024000200949096801F0004159B109
:100A40000749064A0C3A11600649116003490968D2
:100A500001F0004101B1012070470000103C02404C
:100A600023016745AB89EFCDF0B50C460025002288
:100A70000023002183E0012606FA01F504EA0502BD
:100A8000AA427BD1404E8F0856F827308E07370F89
:100A90000F26BE4033403D4EB04201D1002614E047
:100AA0003B4EB04201D101260FE03A4EB04201D197
:100AB00002260AE0384EB04201D1032605E0374E47
:100AC000B04201D1042600E007268F073F0FBE4049
:100AD0009E4224D1324E36689643314F3E603E1DD1
:100AE000366896433F1D3E602D4E0C363668964361
:100AF0002B4F0C373E603E1F366896433F1F3E60CB
:100B00008E07370F0F2606FA07F31F4E8F0856F889
:100B100027609E431C4F4FEA910C47F82C600668F3
:100B20004FEA410C032707FA0CF7BE430660CF08D3
:100B300000F1200656F827604F074FEAD76C0F27C1
:100B400007FA0CF7BE434FEAD10C00F1200747F833
:100B50002C60C6684FEA410C032707FA0CF7BE4326
:100B6000C660466801278F40BE43466086684FEAEC
:100B7000410C032707FA0CF7BE438660491C102975
:100B8000FFF479AFF0BD00000838014000000240DA
:100B90000004024000080240000C02400010024025
:100BA000003C0140F8B502460B4600250024002019
:100BB0000021C7E0012606FA01F51E6806EA0504D1
:100BC000AC4274D11E7906F00306012E04D01E79C2
:100BD00006F00306022E13D190684F000326BE4094
:100BE000B0434F00DE68BE4030439060506801263D
:100BF0008E40B0431E79C6F300168E4030435060DD
:100C00001E7906F00306032E09D0D0684F00032694
:100C1000BE40B0434F009E68BE403043D0601E7956
:100C200006F00306022E13D1CF0802F1200656F873
:100C300027004E07F70E0F26BE40B0434F07FF0EAA
:100C40001E69BE403043CF0802F1200646F8270057
:100C500010684F000326BE40B0431E7906F003061D
:100C60004F00BE40304310605E6806F44036002EF0
:100C700067D000BF00260096344E366846F48046A2
:100C8000324F3E603E46366806F48046009600BF0E
:100C900000BF2F4E8F0856F827008E07370F0F26FC
:100CA000BE40B0432B4EB24202D1002615E048E0D0
:100CB000294EB24201D101260FE0284EB24201D1A5
:100CC00002260AE0264EB24201D1032605E0254E57
:100CD000B24201D1042600E007268F073F0FBE4035
:100CE00030431B4E8F0846F827001F4E3068A04344
:100CF0005E6806F4801606B120431B4E3060361D38
:100D00003068A0435E6806F4001606B12043164E14
:100D1000361D3060144E361F3068A0435E6806F4FE
:100D2000003606B12043104E361F3060361F306843
:100D3000A0435E6806F4803606B120430A4E083EA2
:100D40003060491C1029FFF435AFF8BD443802402B
:100D50000838014000000240000402400008024040
:100D6000000C024000100240083C0140024613699A
:100D70000B400BB1012000E0002070470AB18161F7
:100D800001E00B0483617047014800687047000070
:100D90002000002070B504460CB9012070BD4CF64F
:100DA000CC402168086045F2555021680860D4E9BC
:100DB000001048602168A0688860FFF7E5FF0546DD
:100DC0000DE0FFF7E1FF401B41F60101884206D923
:100DD0002068C06800F0030008B10320DEE7206847
:100DE000C06800F003000028EBD14AF6AA20216871
:100DF00008600020D2E701464AF6AA200A6810607F
:100E000000207047034800680349097808440149F5
:100E100008607047200000202800002010B50D4811
:100E2000006840F400700B4908600846006840F410
:100E3000806008600846006840F480700860032005
:100E400000F0A6F80F2000F007F800F02BF80020C3
:100E500010BD0000003C024070B504460E4800780A
:100E60004FF47A71B1FBF0F00C490968B1FBF0F571
:100E7000284600F02FFC08B1012070BD102C07D2CD
:100E800000222146501E00F045F80548046001E0AC
:100E90000120F2E70020F0E7280000202C000020CD
:100EA0002400002008B500BF002000900E48006814
:100EB00040F480400C4908600846006800F4804017
:100EC000009000BF00BF00BF00200090081F006816
:100ED00040F08050091F08600846006800F080500C
:100EE000009000BF00BF08BD4438024001460846DC
:100EF00000280DDB00BF00BF00F01F0301229A4055
:100F000043099B0003F1E023C3F8002100BF00BFA9
:100F100000BF70472DE9F05F80460D46164600275A
:100F200001F00EFA074639462A46334601F007001B
:100F3000C0F1070ABAF1040F02D94FF0040A01E028
:100F4000C0F1070AD14600F1040ABAF1070F02D234
:100F50004FF0000A01E0A0F1030AD4464FF0010A65
:100F60000AFA09FAAAF1010A0AEA020A0AFA0CFACA
:100F70004FF0010B0BFA0CFBABF1010B0BEA030B6F
:100F80004AEA0B042146404601F0E2F9BDE8F09F31
:100F900000BF00F00702064B19684FF6FF03194027
:100FA000044B0B4343EA0221014B196000BF704719
:100FB0000CED00E00000FA0570B504460D460CB9D2
:100FC000012070BD5848006800F00700A84209D20F
:100FD00055490D700846006800F00700A84201D08E
:100FE0000120EEE7207800F0020002281DD12078D1
:100FF00000F00400042805D14C48006840F4E0509B
:101000004A490860207800F00800082805D14748C0
:10101000006840F46040454908604448006820F09A
:10102000F000A168084341490860207800F0010001
:10103000A8B36068012807D13C4808380068C0F3AD
:101040004040B8B90120BCE76068022802D060685F
:10105000032807D1354808380068C0F3406048B914
:101060000120AEE7314808380068C0F3400008B9F5
:101070000120A6E72D48006820F0030061680843BE
:101080002A490860FFF780FE064609E0FFF77CFE6C
:10109000801B41F28831884202D9032091E707E0A2
:1010A0002248006800F00C006168B0EB810FEDD1C0
:1010B0001D48006800F00700A84209D91A490D70C0
:1010C0000846006800F00700A84201D0012078E738
:1010D000207800F00400042807D11448006820F4A8
:1010E000E050E168084311490860207800F00800EA
:1010F000082808D10D48006820F46040216940EAC2
:10110000C1000A49086000F03FF808490968C1F3C6
:101110000311074A515CC840064908600648006848
:10112000FFF79AFE00204CE7003C024008380240DE
:101130003A3900082C0000202400002001480068F3
:10114000704700002C00002000B5FFF7F7FF0449AE
:101150000968C1F38221034A515CC84000BD000008
:10116000083802404A39000800B5FFF7E7FF044994
:101170000968C1F34231034A515CC84000BD000018
:10118000083802404A3900082DE9F04700240025BC
:101190000026A1462548006800F00C0020B1042874
:1011A00005D008283AD105E0DFF8849039E0DFF86F
:1011B000849036E01D48001F006800F03F041B4883
:1011C000001F006800F4800078B11A481749091F11
:1011D0000968C1F38811A0FB017001462246002373
:1011E0003846FFF749F805460EE011480F49091F38
:1011F0000968C1F38811A0FB017001462246002353
:101200003846FFF739F805460848001F0068C0F364
:101210000140401C4600B5FBF6F902E0DFF81090F3
:1012200000BF00BF4846BDE8F08700000838024014
:101230000024F40040787D01F8B504460CB9012083
:10124000F8BD207800F00100002874D0F94800684B
:1012500000F00C0004280DD0F648006800F00C00E7
:10126000082813D1F348001F006800F48000B0F58F
:10127000800F0BD1EF4808380068C0F340400028C9
:1012800059D06068002856D10120D9E700BF6068B6
:10129000B0F5803F08D1E7480838006840F4803056
:1012A000E449083908601EE06068B0F5A02F0DD150
:1012B000E0480838006840F48020DE4908390860BA
:1012C0000846006840F4803008600CE0D9480838CF
:1012D000006820F48030D749083908600846006863
:1012E00020F48020086000BF606890B1FFF74CFDDB
:1012F000054606E0FFF748FD401B642801D903209E
:101300009EE7CC4808380068C0F340400028F1D080
:1013100011E0FFF739FD054606E0FFF735FD401BFC
:10132000642801D903208BE7C24808380068C0F35D
:1013300040400028F1D1207800F0020002285FD15F
:10134000BC48006800F00C0058B1BA48006800F0D2
:101350000C0008281CD1B748001F006800F480006A
:10136000B0B9B44808380068C0F3400020B1E06864
:10137000012801D0012063E7AE480838006820F05A
:10138000F800216940EAC100AA490839086037E03D
:10139000E06800B30120A8490860FFF7F5FC0546A6
:1013A00006E0FFF7F1FC401B022801D9032047E7C4
:1013B000A04808380068C0F340000028F1D09D48DC
:1013C0000838006820F0F800216940EAC100994916
:1013D0000839086014E0002097490860FFF7D4FC42
:1013E000054606E0FFF7D0FC401B022801D9032088
:1013F00026E7904808380068C0F340000028F1D183
:10140000207800F0080008282CD16069A8B10120DC
:101410008A490860FFF7B8FC054606E0FFF7B4FC10
:10142000401B022801D903200AE782486C3000687B
:10143000C0F340000028F1D014E000207F4908608C
:10144000FFF7A2FC054606E0FFF79EFC401B0228C2
:1014500001D90320F4E677486C300068C0F34000FF
:101460000028F1D1207800F00400042870D1002772
:1014700070483830006800F0805090B900BF0020FC
:1014800000906C483830006840F08050694938312D
:1014900008600846006800F08050009000BF00BF60
:1014A00001276748006800F48070B0B9644800689C
:1014B00040F4807062490860FFF766FC054606E06C
:1014C000FFF762FC401B022801D90320B8E65C4804
:1014D000006800F480700028F2D000BFA0680128E6
:1014E00008D154486830006840F001005149683123
:1014F00008601DE0A06805280DD14E4868300068DE
:1015000040F004004B49683108600846006840F02C
:10151000010008600CE047486830006820F00100D6
:101520004449683108600846006820F004000860FB
:1015300000BFA068A8B1FFF727FC054609E0FFF748
:1015400023FC401B41F28831884202D9032077E610
:1015500026E0384868300068C0F340000028EED02C
:1015600013E0FFF711FC054608E0FFF70DFC401BF8
:1015700041F28831884201D9032061E62D48683064
:101580000068C0F340000028EFD1012F07D129489F
:101590003830006820F0805026493831086000BF9C
:1015A000A069002845D02348006800F00C000828F6
:1015B0005DD0A069022845D100201F490866FFF7C9
:1015C000E3FB054606E0FFF7DFFB401B022801D9DD
:1015D000032035E6174808380068C0F3406000284B
:1015E000F1D1D4E907010843616A40EA811101227F
:1015F000A06AC2EB500041EA00412C20005D41EAA4
:1016000000600C49091F086001200B490866FFF7BC
:10161000BBFB054606E0FFF7B7FB401B022801D9DC
:1016200003200DE6034808380068C0F34060002836
:10163000F1D049E00838024000004742800E47429E
:1016400000700040002021490866FFF79DFB054619
:1016500006E0FFF799FB401B022801D90320EFE5C4
:101660001B480068C0F340600028F2D12CE0A0695C
:10167000012800D1E4E51648001D0668A06901288C
:1016800020D006F48001E06981421BD106F03F01C1
:10169000206A814216D147F6C0703040616AB0EBD3
:1016A000811F0FD106F440310122A06AC2EB500025
:1016B000B1EB004F06D106F070612C20005DB1EB5C
:1016C000006F01D00120BBE50020B9E500004742D2
:1016D0000038024070B504462546681EB0F1807F90
:1016E00001D301200FE0681E4FF0E02148610F2177
:1016F0004FF0FF3000F02CFE00204FF0E021886119
:1017000007200861002070BD704770472DE9F84F31
:101710000446206805682068C668206847694FF05D
:101720000009CA4605F00F09B9F1000F0AD105F00A
:10173000200038B106F0200020B1204600F0CBFB9D
:10174000BDE8F88FB9F1000F7CD007F0010018B99F
:1017500006F49070002875D005F0010030B106F451
:10176000807018B1606C40F00100606405F0040006
:1017700030B107F0010018B1606C40F00200606405
:1017800005F0020030B107F0010018B1606C40F0C4
:101790000400606405F0080048B106F0200010B9AC
:1017A00007F0010018B1606C40F008006064606CE4
:1017B000002846D005F0200028B106F0200010B126
:1017C000204600F088FB20684069C0F3801A606CF6
:1017D00000F0080010B9BAF1000F2DD0204600F03B
:1017E00034FB2068406900F04000402820D100BF51
:1017F00000BF2168143151E8001F21F0400021682A
:10180000143141E80002002AF3D100BFE06B50B16F
:101810007F48E16B0865E06BFFF73CF888B1E06B4F
:10182000016D88470DE02046FFF76FFF09E009E0F2
:101830002046FFF76AFF04E02046FFF766FF00201E
:1018400060647DE7206B012878D105F01000002846
:1018500074D006F010000028FAD000BF00200090DD
:1018600020680068009020684068009000BF00BFBA
:101870002068406900F04000402870D1E06B0068AB
:1018800040681FFA80F8B8F1000F58D0A08D40458D
:1018900055DDA4F82E80E06BC069B0F5807F43D0A1
:1018A00000BF00BF21680C3151E8001F21F4807097
:1018B00021680C3141E80002002AF3D100BF00BFCB
:1018C00000BF2168143151E8001F21F00100216898
:1018D000143141E80002002AF3D100BF00BF00BF6D
:1018E0002168143151E8001F21F0400021681431B3
:1018F00041E80002002AF3D100BF202084F8420012
:101900000020206300BF00BF21680C3151E8001F98
:1019100021F0100021680C3141E80002002AF3D1C7
:1019200000BFE06BFEF760FF02206063A08DE28DD8
:10193000801A81B22046FFF7E7FE0EE052E0A08D4C
:1019400040450AD1E06BC069B0F5807F05D1022027
:101950006063A18D2046FFF7D7FEF1E6FFE7A08D7B
:10196000E18D401A1FFA80F8E08DD0B3B8F1000F76
:1019700037D000BF00BF21680C3151E8001F21F4AF
:10198000907021680C3141E80002002AF3D100BFB9
:1019900000BF00BF2168143151E8001F21F0010091
:1019A0002168143141E80002002AF3D100BF202051
:1019B00084F842000020206300BF00BF21680C3182
:1019C00051E8001F21F0100021680C3141E80002AD
:1019D000002AF3D100BF0220606341462046FFF792
:1019E00093FEADE605F0800030B106F0800018B13E
:1019F000204600F025FCA3E605F0400030B106F0DB
:101A0000400018B1204600F056FA99E600BF97E66C
:101A1000391E000810B504460CB9012010BDA0699C
:101A200000B100E000BF94F8410028B9002084F81C
:101A30004000204600F02AF8242084F84100206865
:101A4000C06820F400502168C860204600F0C2FA47
:101A50002068006920F4904021680861206840698E
:101A600020F02A00216848612068C06840F40050D6
:101A70002168C86000206064202084F8410084F858
:101A800042000020606300BFC8E7000010B586B0C8
:101A90000446142101A8FEF7DDFC1F492068884296
:101AA00038D100BF002000901C48006840F01000B2
:101AB0001A4908600846006800F01000009000BF56
:101AC00000BF00BF0020009014481438006840F0A8
:101AD00001001249143908600846006800F001004E
:101AE000009000BF00BF4FF4C06001900220029040
:101AF00000200390032004900720059001A90848C6
:101B0000FFF750F8002211462520FFF703FA2520A1
:101B1000FFF7ECF906B010BD001001404438024058
:101B20000000024070B504460D46164694F8420087
:101B300020280BD105B10EB9012070BD0020206313
:101B400032462946204600F05BFBF6E70220F4E728
:101B500010B5044607492068884209D10122064988
:101B6000064801F01EFE012203490548FFF7DAFF8F
:101B700010BD00000010014030000020AC04002027
:101B8000600000202DE9F84F04460E46174699469E
:101B90004FF0000A94F84100202850D106B117B93F
:101BA0000120BDE8F88F00206064212084F8410006
:101BB000FFF7EAF88246A784E784A068B0F5805F63
:101BC00004D1206910B90025B04602E035464FF037
:101BD00000081EE05346002280212046CDF80090E8
:101BE00000F05EFB20B1202084F841000320D8E7FC
:101BF00045B9B8F80000C0F308002168486008F152
:101C0000020803E02878216848606D1CE08C401EC3
:101C1000E084E08C0028DDD153460022402120469C
:101C2000CDF8009000F03CFB20B1202084F841006A
:101C30000320B6E7202084F841000020B1E702200D
:101C4000AFE7704700BFFEE700B587B0142102A8D8
:101C5000FEF700FC00BF002001902448006840F01F
:101C60000400224908600846006800F00400019062
:101C700000BF00BF00BF002001900846006840F090
:101C8000800008600846006800F08000019000BFF6
:101C900000BF00BF002001900846006840F001002E
:101CA00008600846006800F00100019000BF00BF16
:101CB000012251030E48FFF761F84FF400500290E3
:101CC0000120039004900020059002A90848FEF727
:101CD00069FF01200290002003900120049002A9D6
:101CE0000448FEF75FFF07B000BD00003038024037
:101CF000000802400000024010B50748074908608C
:101D0000032048604FF47A6104488160FFF742F88D
:101D100008B1FEF705FC10BD003000405400002063
:101D200010B50B480B4908604FF41650486000216D
:101D300008488160C16001610C214161002181611D
:101D4000C161FFF767FE08B1FEF7EAFB10BD0000B6
:101D5000001001406000002000BFFEE700BFFEE76A
:101D60007047704710B5FFF74DF810BD00B593B040
:101D7000302107A8FEF76EFB142102A8FEF76AFBCC
:101D800000BF002001902548006840F080502349A2
:101D900008600846006800F08050019000BF00BF56
:101DA00000BF002001901E48006840F440401C49DC
:101DB00008600846006800F44040019000BF00BF82
:101DC000092007904FF48030089001200C900220E9
:101DD0000D9041050E910C210F916021109102216F
:101DE00011910421129107A8FFF726FA08B1FEF716
:101DF00097FB0F20029002200390002004904FF4E4
:101E00008050059000200690032102A8FFF7D4F827
:101E100008B1FEF785FB13B000BD0000403802405A
:101E2000007000400348006840F4700001490860F9
:101E30007047000088ED00E070B50446A56B0020F7
:101E4000E8852846FFF761FC70BD00BF00BF02684F
:101E50000C3252E8002F22F4907102680C3242E8F2
:101E60000013002BF3D100BF00BF00BF0268143283
:101E700052E8002F22F001010268143242E80013F8
:101E8000002BF3D100BF016B01290ED100BF00BFB1
:101E900002680C3252E8002F22F0100102680C3266
:101EA00042E80013002BF3D100BF202180F842103C
:101EB00000210163704710B504462068C06820F017
:101EC00040002168C860202084F841002046FFF7C8
:101ED000B8FE002010BDF8B504460025002694F891
:101EE0004200222873D1A068B0F5805F0BD1206931
:101EF00048B9A66A20684068C0F308003080A06A2C
:101F0000801CA06214E0A56AA068B0F5805F03D0D1
:101F1000A06828B9206918B920684068287004E0D2
:101F20002068406800F07F002870A06A401CA06212
:101F3000E08D401E80B2E085002846D12068C06850
:101F400020F020002168C8602068C06820F48070FC
:101F50002168C8602068406920F00100216848615C
:101F6000202084F8420000206063206B012826D1E5
:101F70000020206300BF00BF21680C3151E8001F22
:101F800021F0100021680C3141E80002002AF3D151
:101F900000BF2068006800F0100010280AD100BFC0
:101FA0000020009020680068009020684068009041
:101FB00000BF00BFA18D2046FFF7A6FB02E0204630
:101FC000FFF7C6FD0020F8BD01E00020FBE702207E
:101FD000F9E700002DE9F84F04462068006920F475
:101FE0004050E1680843216808612169A0680843FE
:101FF00061690843E169084300902068C06849F2BC
:102000000C618843009908432168C86020684069D2
:1020100020F44070A169084321684861764920682E
:10202000884203D075492068884203D1FFF79CF8A5
:10203000814602E0FFF788F88146E069B0F5004F7D
:102040006CD102206168A0FB015003461920A9FB56
:10205000007001462A463846FEF70EF96421B0FBAF
:10206000F1F04FEA001A02206168A0FB01510B4613
:102070001920A9FB00712A463846FEF7FDF8834671
:1020800002206168A0FB015003461920A9FB0071E2
:102090002A463846FEF7F0F86421B0FBF1F000EB79
:1020A000C00101EB0010ABEB8000322101EBC0005E
:1020B0006421B0FBF1F000F0F8000AEB400A0220C6
:1020C0006168A0FB015003461920A9FB007001467E
:1020D0002A463846FEF7D0F8834602206168A0FB06
:1020E000015003461920A9FB00712A463846FEF725
:1020F000C3F86421B0FBF1F000EBC00101EB00106C
:10210000ABEB8000322101EBC0006421B0FBF1F0A9
:1021100000F007005044216888606AE0042061688C
:10212000A0FB015003461920A9FB007001462A4676
:102130003846FEF7A1F8824604206168A0FB0150F2
:1021400003461920A9FB007001462A463846FEF7CF
:1021500093F86421B0FBF1F000EBC00101EB00103B
:10216000AAEB8000322101EB00106421B0FBF1F0FA
:1021700000F0F00A04206168A0FB017003461920FA
:10218000A9FB00513A462846FEF776F86421B0FBD9
:10219000F1F00AEB001A04206168A0FB01510B4624
:1021A0001920A9FB00712A463846FEF765F88346D8
:1021B00004206168A0FB015003461920A9FB0070B0
:1021C00001462A463846FEF757F86421B0FBF1F085
:1021D00000EBC00101EB0010ABEB8000322101EB02
:1021E00000106421B0FBF1F000F00F0050442168B2
:1021F0008860BDE8F88F0000001001400014014025
:1022000010B5034699629A85DA8500205864222029
:1022100083F84200186928B11868C06840F48070DB
:102220001C68E0601868406940F001001C6860614B
:102230001868C06840F020001C68E060002010BDF5
:10224000014691F84100212828D18868B0F5805FC7
:102250000BD1086948B90A6A1088C0F308000B68F6
:102260005860086A801C086205E00B6A581C086206
:1022700018780B685860C88C401E80B2C88458B962
:102280000868C06820F080000B68D8600868C068E3
:1022900040F040000B68D860002070470220FCE747
:1022A0002DE9F84304460D4617469846089E31E04E
:1022B000701C70B3FEF768FDA0EB0800B04200D8B8
:1022C00016B90320BDE8F8832068C06800F0040058
:1022D000F8B1802D1ED0402D1CD020680068C0F3BE
:1022E000C000B0B100BF00200090206800680090DE
:1022F00020684068009000BF00BF2046FFF7A5FDA2
:102300000820606400BF002084F8400000BF012066
:10231000D8E7FFE7206800682840A84201D10120E3
:1023200000E00020B842C3D00020CBE710B502483F
:10233000FFF7ECF910BD00006000002000BFFEE7D1
:1023400002480068C0F30220704700000CED00E076
:1023500010B5002804DB0A07130E054A135406E0E3
:102360000A07140E034A00F00F031B1FD45410BDBC
:1023700000E400E018ED00E000B9704700BFFCE7A2
:1023800010B586B004460CB906B010BD00BF0020E1
:1023900000901248006840F00400104908600846A8
:1023A000006800F00400009000BF00BF012251034C
:1023B0000B48FEF7E3FC142101A8FEF74BF84FF49D
:1023C000005001900120029003900020049001A988
:1023D0000348FEF7E7FB00BFD6E7000030380240B5
:1023E0000008024010B5044604B910BD0122510393
:1023F0000248FEF7C3FC00BFF7E7000000080240F8
:1024000010B5044604B910BD00224FF40051024833
:10241000FEF7B4FC00BFF6E70008024000B97047C1
:1024200000BFFCE700B9704700BFFCE710B50446E9
:10243000FEF7AAFC206010BD014609B901207047D3
:102440000020FCE710B504460CB9012010BD02487D
:10245000FEF7D1FC0020F9E75400002010B5044637
:102460000CB9012010BD08480849086003204860E5
:102470004FF47A6105488160FEF78CFC08B1FEF7E5
:102480004FF80020EEE7000000300040540000202C
:1024900010B5044604B910BD01210248FEF7E4FA64
:1024A00000BFF8E70000024010B586B004460CB942
:1024B00006B010BD00BF002000900E48006840F03C
:1024C00001000C4908600846006800F00100009017
:1024D00000BF00BF142101A8FDF7BCFF012001903F
:1024E000002002900120039001A90348FEF75AFB47
:1024F00000BFDDE7303802400000024070B50546FD
:102500000C4605B970BD01210548FEF72FFC10B936
:102510000120207001E00020207000BFF2E70000E1
:102520000000024000B9704700BFFCE700B97047E7
:1025300000BFFCE7014609B9012070470020FCE715
:1025400010B586B0044614B9012006B010BD00BF16
:10255000002000902D48006840F010002B490860D2
:102560000846006800F01000009000BF00BF00BFE8
:102570000020009025481438006840F001002349ED
:10258000143908600846006800F00100009000BFA0
:1025900000BF142101A8FDF75DFF4FF4C06001905A
:1025A0000220029000200390032004900720059051
:1025B00001A91748FEF7F6FA1648174908604FF4C4
:1025C00016504860002114488160C16001610C21EF
:1025D000416100218161C161FFF71CFA08B1FDF77B
:1025E0009FFF002211462520FEF794FC2520FEF7D0
:1025F0007DFC012209490848FFF794FA40F20442A1
:102600000749084801F052F800209EE7443802408C
:102610000000024000100140600000203000002057
:10262000A8000020AC0400202DE9F84F81460E469A
:1026300015469A46B9F1000F01D006B115B901202F
:10264000BDE8F88FFEF7A0FB074600241DE0114807
:1026500001F015F88346BBF1000F0ED0281B58453A
:1026600001D9584600E0281B009031190948009A0A
:1026700001F02AF88046444406E0FEF785FBC01BC3
:10268000504501D30220DBE700BFAC42DFD300207E
:10269000D6E70000AC0400202DE9F04105460E46C7
:1026A00014461F460DB106B114B90120BDE8F081F2
:1026B000A2B23B4631460248FFF764FA0020F5E734
:1026C00060000020014609B9012070470020FCE7A6
:1026D000014609B9012070470020FCE710B588B019
:1026E000044620216846FDF7B5FE6946002000F04B
:1026F000DBFE207A00F00F00072817D2DFE800F099
:10270000160405061314150011E010E0684600F0E9
:10271000F7FE6420FEF7D2F8684600F0E6FE64207B
:10272000FEF7CCF803E002E001E000E000BF00BFEC
:1027300008B010BD10B58CB00020089009900A9028
:102740000B901C2101A8FDF785FE01A9002000F0D7
:1027500027FD0A490A4800F089FB0446002C0BDDDE
:102760000A942146064800F07DFA0B90102308AA2F
:10277000044901A800F0A4FD0CB010BD880500209C
:1027800000000408008000082DE9F84304460D46C7
:102790009046002028604146684600F053F818B182
:1027A0004FF0FF30BDE8F8839DF80000182813D0E3
:1027B00006DC012809D0022809D0042820D109E02C
:1027C00041281AD061281BD118E080271BE04FF464
:1027D000806718E00020E5E74146684600F032F8DF
:1027E00040B99DF80000182804D14FF0FF30286050
:1027F0000020D7E74FF0FF30D4E700BF0120D1E73A
:102800004FF0FF30CEE700BF9DF80000207001269A
:1028100009E0A019414600F015F810B14FF0FF3063
:10282000C0E7701C86B2781D8642F2DB6178A07822
:1028300080F0FF00814202D04FF0FF30B2E72F60FE
:102840000020AFE770B588B004460D461CB94FF0C4
:10285000FF3008B070BD6946002000F08DFE0026F4
:1028600009E0002301222146684600F0A2FE08B9D3
:102870000020EEE7761CAE42F3D34FF0FF30E8E7DE
:1028800001B588B06946002000F076FE01231A46A3
:1028900008A9684600F0C8FE002009B000BD70B568
:1028A00002460C460021002500231078302843D131
:1028B0005078782802D0507858283DD1907808B9BF
:1028C000002070BD022130E0505C10B9236001256A
:1028D0002DE0505C412802DB505C46280BDD505C4B
:1028E000612802DB505C662805DD505C302819DB6E
:1028F000505C392816DC505C302805DB505C3928E8
:1029000002DC505C30380AE0505C412805DB505C4A
:10291000462802DC505C373801E0505C573800EB49
:10292000031301E0002502E0491C0B29CCD300BFB2
:102930000B2934D3002532E000212AE0505C10B985
:102940002360012527E0505C6B2802D0505C4B28A7
:1029500004D119B19B02236001251CE0505C6D2855
:1029600002D0505C4D2804D119B11B05236001250C
:1029700011E0505C302809DB505C392806DC505CE3
:10298000303803EB830600EB460301E0002502E04C
:10299000491C0B29D2D300BF0B2900D300252846A0
:1029A0008FE700B9704700BFFCE700002DE9F04158
:1029B00086B007460C461546002005900026804646
:1029C0003FB14348844204D360194249884200D849
:1029D00015B906B0BDE8F081FEF72CF83C488442FA
:1029E00001D2002621E03C48844201D201261CE0AD
:1029F0003A48844201D2022617E03948844201D283
:102A0000032612E03748844201D204260DE03648FE
:102A1000844201D2052608E03448844201D20626C9
:102A200003E02C48844200D2072660192A498842D4
:102A300004D8C6F1020000F0FF0834E0601927490D
:102A4000884204D8C6F1030000F0FF082BE06019AB
:102A50002349884204D8C6F1040000F0FF0822E0B0
:102A600060192049884204D8C6F1050000F0FF082B
:102A700019E060191C49884204D8C6F1060000F02C
:102A8000FF0810E060191949884204D8C6F1070010
:102A900000F0FF0807E060190E49884203D8C6F12C
:102AA000080000F0FF080020009002200490029629
:102AB000CDF80C800120019005A96846FDF712FFB2
:102AC00010B1FDF765FF84E7FDF762FF00BF80E707
:102AD00000400008000008080080000800C000084E
:102AE00000000108000002080000040800000608B9
:102AF00000B9704700BFFCE730B504462CB122B1E5
:102B00001BB1C818064DA84200D930BD002002E014
:102B10000D5C1554401C9842FAD300BFF5E7000045
:102B2000000008082DE9F04180460C4617461D4676
:102B3000B8F1000F08D03FB160191049884203D89E
:102B40000F48844200D30DB9BDE8F081FDF772FF54
:102B500000260CE017F806C0A119624600231846AB
:102B6000FDF720FF10B1FDF713FFEDE7761CAE4235
:102B7000F0D3FDF70DFF00BFE6E7000000000808F6
:102B80000040000800B587B01C2205496846FDF7E3
:102B90002FFC6946002000F05DFB002007B000BD5F
:102BA000AC39000800B585B0142205496846FDF728
:102BB0001FFC6946002000F0F5FB002005B000BDB9
:102BC000E839000810B58EB0044638220549684639
:102BD000FDF70EFC0A946946002000F02BFC002053
:102BE0000EB010BD7439000800B589B02022054927
:102BF00001A8FDF7FDFB01A9019800F08DFC002064
:102C000009B000BD5439000800B589B0202205493B
:102C100001A8FDF7EDFB01A9002000F0DFFC00207A
:102C200009B000BDC839000870B504460D464FF024
:102C3000FF31264600220FE0B35C5940002308E034
:102C400001F0010018B1064880EA510100E049088E
:102C50005B1C082BF4D3521CAA42EDD3C84370BDB1
:102C60002083B8EDF0B589B006460F464FF0FF342B
:102C70000025002008901C2101A8FDF7EBFB01A90D
:102C8000002000F08DFA00BF17E07119012308AA97
:102C900001A800F0B9FA9DF820004440002009E0A6
:102CA00004F0010119B1074981EA540400E0640805
:102CB000411CC8B20828F3DB6D1CBD42E5D3E043DC
:102CC00009B0F0BD2083B8ED10B58CB0202104A868
:102CD000FDF7C0FB04A9002000F04EFC184903C911
:102CE000CDE90201032102A8FFF79EFFCDF80B00FA
:102CF00008231A4602A904A800F096FC00200090C0
:102D000001904FF47A730822694604A800F051FC40
:102D1000002411E09DF802000A4951F8341088425D
:102D200009D1084800EBC400406820B1054901EB17
:102D3000C40148688047641C052CEBD30CB010BD5F
:102D4000FC3900083400002030B5C9B0002045909F
:102D500046904790489020213DA8FDF77BFB3DA978
:102D6000002000F009FC1C2136A8FDF773FB36A9F2
:102D7000002000F015FAD02102A8FDF76BFB00241B
:102D80000025102345AA284936A800F03DFA6823FB
:102D900002AA264936A800F037FA68231CAA24495B
:102DA00036A800F031FA23484599FFF75BFF044647
:102DB00021484799FFF756FF05464698A04215D08F
:102DC0004898A84212D147981A4B36AA1A4900903F
:102DD00036A800F079F94798459048984690102316
:102DE00045AA114936A800F06BFA1BE04698A042AC
:102DF00018D14898A84215D10A992498884211D927
:102E000047980C4B36AA0C49009036A800F05CF9A4
:102E10004798459048984690102345AA024936A8FD
:102E200000F04EFA49B030BD0080000800C800082C
:102E30000008040800C000080000040870B5094834
:102E4000006809490840B0F1005F09D172B6054831
:102E500044680146086880F3088800BF2546A847F3
:102E600070BD000000C000080000FD2F2DE9F04FEC
:102E7000ADF2644D06460F4600200E90142109A8BD
:102E8000FDF7E8FA09A9002000F05CFA1C2102A86D
:102E9000FDF7E0FA02A9002000F082F986480660FA
:102EA000FDF772FF01900020119082460F9000BF45
:102EB0004FF0000800201090BB4600BF09A800F0AA
:102EC00025FAFDF761FF0199401A42F2107188421C
:102ED00005D96FF002000DF2644DBDE8F08F4FF49C
:102EE000803212A917A8FFF74FFC10B1012872D148
:102EF000B5E04FF0000A1298B0F1FF3F01D058B989
:102F000004E00620FFF7BCFC0020E4E70620FFF702
:102F1000B7FC01201090A0E0FDF736FF01909DF86E
:102F20005D0008F0FF01884203D01520FFF7A8FCE0
:102F300092E0B8F1000F4FD19DF85F00002843D018
:102F400000250DF15F0405E014F8012B28466D1CE7
:102F50005A490A54207808B1402DF5DB0022284652
:102F60006D1C56490A540025641C05E014F8012B19
:102F700028466D1C13A90A542078202801D0102D52
:102F8000F4DB002228466D1C13A90A540EA913A8CD
:102F9000FFF785FC4A490E98884208D91820FFF7A8
:102FA0006FFC1820FFF76CFC4FF0FF3093E74248AE
:102FB0000E9A016802A800F0D1F80620FFF760FC25
:102FC0004320FFF75DFC43E00620FFF759FC01209A
:102FD0001090119041E04BE00DF15F015846129ABC
:102FE000FDF7C1F9374807604FF0000924E00423DA
:102FF000344802683048016802A800F061F92E48A0
:10300000006800682F4909680968884208D01820BC
:10301000FFF736FC1820FFF733FC6FF001005AE78A
:1030200025480068001D2449086026480068001DE6
:103030002449086009F104091298814505DA0E98BF
:1030400030441D4909688842D1D80620FFF718FC92
:1030500008F1010801200F9000BF00BF1CE01820FC
:10306000FFF70EFC1820FFF70BFC6FF0020032E7B1
:103070000F98002801DD0AF1010ABAF1050F07DDFA
:103080001820FFF7FDFB1820FFF7FAFB002022E7CE
:103090004320FFF7F5FB00BF00BF109800283FF466
:1030A0000DAF00BF00BF119800283FF401AF00BF73
:1030B00000BF0E980FE700004C0000208C09002094
:1030C000FE3F0300500000202DE9F84304468846E7
:1030D00015461E46089F84B17DB177B12068C0EBCC
:1030E000C0001D4901EB8000806930B12868C0EB49
:1030F000C00001EB8000406910B90120BDE8F883F1
:103100003A463146284600F029F8002000908146D2
:103110001EE02068C0EBC0000F4901EB80000423D3
:103120006A464146D0F818C02046E0472068C0EB08
:10313000C000094901EB800004236A463146D0F8FB
:1031400014C02846E04708F10408361D09F10109BA
:10315000B945DED30020D1E71C05002070B5044638
:103160000D46164654B12068022807D22068C0EBED
:10317000C0000A4901EB8000006908B9012070BD58
:103180002068C0EBC000054901EB800032462946AB
:103190000369204698470020F1E700001C05002045
:1031A00070B504460D46022C00D80DB9012070BD43
:1031B000C4EBC400044A02EB80011C222846FDF740
:1031C00017F90020F3E700001C05002010B50446A5
:1031D00054B12068022807D22068C0EBC00009491A
:1031E00001EB8000806808B9012010BD2068C0EBA9
:1031F000C000044A02EB8000816820468847002016
:10320000F3E700001C0500202DE9F04104460D46BF
:1032100016461F4654B12068022807D22068C0EB2A
:10322000C0000B4901EB8000806910B90120BDE8A6
:10323000F0812068C0EBC000054901EB80003B46EF
:1032400032462946D0F818C02046E0470020EEE775
:103250001C05002010B5024609B1022A01D3012045
:1032600010BDC2EBC200154B43F82020C2EBC203D5
:10327000124C04EB830348685860C2EBC20304EBB2
:10328000830388689860C2EBC20304EB8303C868B9
:10329000D860C2EBC20304EB830308691861C2EB78
:1032A000C20304EB830348695861C2EBC20304EB19
:1032B0008303886998610020D2E700001C05002084
:1032C0002DE9F04104460D4616461F4654B12068CC
:1032D000022807D22068C0EBC0000B4901EB800038
:1032E000406910B90120BDE8F0812068C0EBC00042
:1032F000054901EB80003B4632462946D0F814C010
:103300002046E0470020EEE71C05002010B50446EB
:103310004CB1206838B9206800EB8000084901EB07
:103320008000006908B9012010BD206800EB800012
:10333000034A02EB80000169204688470020F3E73A
:103340007405002070B504460D4604B90DB901207E
:1033500070BD04EB8400044A02EB8001142228466D
:10336000FDF746F80020F3E77405002010B5044689
:103370004CB1206838B9206800EB8000084901EBA7
:103380008000806808B9012010BD206800EB800033
:10339000034A02EB80008168204688470020F3E75B
:1033A0007405002010B5024601B10AB1012010BD1C
:1033B00002EB82000E4B43F8202002EB82030C4C00
:1033C00004EB83034868586002EB820304EB830339
:1033D0008868986002EB820304EB8303C868D860B6
:1033E00002EB820304EB8303086918610020DEE727
:1033F0007405002070B504460D4604B90DB90120CE
:1034000070BDC4EBC400044A02EBC0013822284658
:10341000FCF7EEFF0020F3E7E404002010B50446BB
:103420000CB1E06908B9012010BD2046E169884768
:103430000020F9E710B5024609B9012010BDC2EB22
:10344000C200184B43F83020C2EBC203154C04EB0A
:10345000C303C869D861C2EBC20304EBC303086AA3
:103460001862C2EBC20304EBC303486A5862C2EBA2
:10347000C20304EBC303C86AD862C2EBC20304EB05
:10348000C303086B1863C2EBC20304EBC303486BAE
:103490005863C2EBC20304EBC303886A986200203E
:1034A000CCE70000E404002070B504460D4608484F
:1034B00000EB4410806800B10DB9022070BD0448D3
:1034C00000EB441120222846FCF792FF0020F5E78C
:1034D000C404002010B50446A06808B9022010BD3D
:1034E0002046A16888470020F9E710B504466069C6
:1034F00008B9022010BD2046616988470020F9E71D
:1035000010B50446206908B9022010BD2046216983
:1035100088470020F9E70000024609B902207047F9
:10352000144800EB42100260124B03EB4213486850
:103530005860104B03EB4213886898600D4B03EB07
:103540004213C868D8600B4B03EB4213086918613B
:10355000084B03EB421348695861064B03EB4213D7
:1035600088699861034B03EB4213C869D861002056
:10357000D5E70000C404002070B504460D4605B12F
:103580000CB1012070BD044800EB441120222846F4
:10359000FCF72EFF0020F5E75405002010B5044687
:1035A0000CB1A06808B9012010BD2046A168884769
:1035B000FAE72DE9F04104460D4616461F460CB1C8
:1035C000606910B90120BDE8F0813B4632462946CA
:1035D0002046D4F814C0E047F5E70000024609B9D8
:1035E000012070470F4B03EB4213086818600D4B26
:1035F00003EB4213486858600A4B03EB4213886898
:103600009860084B03EB4213C868D860054B03EB86
:10361000421308691861034B03EB42134869586170
:103620000020DEE7540500202DE9F04104460D4658
:1036300016461F460CB1206910B90120BDE8F08183
:103640003B46324629462046D4F810C0E047F5E70D
:1036500030B5014600240022002319B1086808B1E2
:10366000486808B9002030BDCA688B689A4203D305
:10367000D51A4868441B00E09C1A601EF3E730B579
:10368000014600240022002319B1086808B14868E7
:1036900008B9002030BDCA688B689A4201D3D41A99
:1036A00002E09D1A4868441B2046F3E703460BB12D
:1036B00001B10AB900207047002018615A601960F2
:1036C000D86098600120F6E77CB504460D461646A2
:1036D0000020019001AB324629460090204600F0C0
:1036E00005F808B101987CBD0020FCE72DE9F05FEA
:1036F00004468846154699460026B2460027C3462A
:103700003CB1206828B1606818B1B8F1000F00D052
:1037100015B90020BDE8F09F2046FFF7B0FF8246B4
:10372000BAF1000F05D0AA4505D20A9800F00100B1
:1037300008B10020EEE7AA4501D2504600E0284635
:103740000546A7686068C01BA84202D26068C01B1B
:1037500000E0284606462068C11932465846FCF764
:1037600002FEB3443744AD1B2DB12A4658462168AA
:10377000FCF7F9FD2F466068B84200D80027A76023
:1037800000BF206920B172190021204623699847A3
:1037900000BFB9F1000F02D07019C9F80000012074
:1037A000B8E77CB504460D4616460020019001ABF3
:1037B000324629460090204600F005F808B10198ED
:1037C0007CBD0020FCE72DE9F05F044688461546E5
:1037D00099460026B2460027C3463CB1206828B16E
:1037E000606818B1B8F1000F00D015B90020BDE82D
:1037F000F09F2046FFF72CFF8246BAF1000F05D05C
:10380000AA4505D20A9800F0010008B10020EEE7B1
:10381000AA4501D2504600E028460546E7686068A0
:10382000C01BA84202D26068C01B00E028460646C2
:103830002168C81932465946FCF795FDB344374410
:10384000AD1B2DB12A4659462068FCF78CFD2F464A
:103850006068B84200D80027E76000BF206920B147
:103860007219012120462369984700BFB9F1000F62
:1038700002D07019C9F800000120B8E7AAB0FDF71E
:10388000CDFAFEF773FAFEF7DFF9FEF749FAFEF715
:1038900033FAFFF787F9142125A8FCF7DBFD25A9EA
:1038A0000020FFF74FFD25A8FFF760FDFFF79CF90B
:1038B0001E48FFF787F9FFF765F9FFF7A5F9202103
:1038C0001DA8FCF7C7FD1DA90020FFF7EDFD1DA8F1
:1038D000FFF700FE38210FA8FCF7BCFD0FA9002060
:1038E000FFF788FD0FA8FFF799FD1C2108A8FCF73A
:1038F000B1FD08A90020FFF753FC08A8FFF766FCFC
:1039000020216846FCF7A6FD69460020FFF734FE3B
:103910006846FFF743FE08E025A8FFF7F7FCFFF72E
:10392000D3F9FFF711FAFFF789FAF5E7DD2600086A
:103930004FF04070E1EE100A7047000000000000F8
:10394000000001020304060708090000000001024C
:1039500003040000000000000000000081230008B4
:103960007923000801240008E52300081D2400082D
:1039700025240008000000000000000000000000F6
:103980000000000000000000000000000000000037
:10399000A924000891240008FD240008000000006C
:1039A000252500082D2500082D2400080000000012
:1039B00000000000F12A0008A3290008AD29000832
:1039C000252B0008F92A0008000000000000000074
:1039D00041250008352500089926000829260008F9
:1039E000C5260008D12600080000000000000000E5
:1039F0005D2400083924000845240008AA080100B5
:103A00000000000D243A00080000002054000000CF
:103A1000D4010008783A000854000020DC0F0000B0
:103A2000F00100080000000000000000000000009D
:103A30000000000001000000000000000000000085
:103A40000000000000000000100000000100000065
:103A50000024F400000000000300000035270008E7
:103A60000000000000000000000000000000000056
:083A700000C000080000000086
:040000050800019955
:00000001FF
