:020000040800F2
:10000000200700203902000881150008C9140008E3
:100010007D15000893040008551600080000000034
:10002000000000000000000000000000871500082C
:1000300097040008000000008515000889150008D5
:10004000530200085302000853020008530200083C
:10005000530200085302000853020008530200082C
:10006000530200085302000853020008530200081C
:10007000530200085302000853020008530200080C
:100080005302000853020008530200080000000059
:100090000000000000000000000000005302000803
:1000A00053020008530200085302000853020008DC
:1000B00053020008530200085302000853020008CC
:1000C00053020008530200085302000853020008BC
:1000D0005302000853020008530200080000000009
:1000E00053020008530200085302000800000000F9
:1000F00000000000000000000000000053020008A3
:1001000000000000530200085302000853020008D8
:1001100000000000000000000000000000000000DF
:10012000530200085302000853020008530200085B
:100130005302000800000000000000000000000062
:100140000000000000000000000000005302000852
:10015000530200085302000853020008530200082B
:1001600053020008530200080000000000000000D5
:10017000000000000000000000000000000000007F
:100180000000000053020008000000000000000012
:10019000530200085302000800F002F800F03CF897
:1001A0000AA090E8000C82448344AAF10107DA45D2
:1001B00001D100F031F8AFF2090EBAE80F0013F0E8
:1001C000010F18BFFB1A43F001031847081C000079
:1001D000281C0000103A24BF78C878C1FAD852070A
:1001E00024BF30C830C144BF04680C6070470000B1
:1001F0000023002400250026103A28BF78C1FBD830
:10020000520728BF30C148BF0B6070471FB501F0CF
:1002100095FD1FBD10B510BD00F001F91146FFF7A7
:10022000F5FF01F051FD00F01FF903B4FFF7F2FFF5
:1002300003BC00F027F9000009488047094800473F
:10024000FEE7FEE7FEE7FEE7FEE7FEE7FEE7FEE786
:10025000FEE7FEE704480549054A064B70470000E3
:100260004116000899010008200100202007002005
:10027000200300202003002053EA020C00F06980D4
:100280002DE9F04B4FF00006002B1FBFB3FA83F5AA
:1002900003FA05F424FA05F65E4012BF1643B2FADB
:1002A00082F502FA05F4C5F120051EBF22FA05FC0D
:1002B00044EA0C04203556EA044C4FEA144418BFB3
:1002C000641C4FF000084FF00009904271EB030CE2
:1002D00039D3002919BFB1FA81F701FA07F6B0FA4C
:1002E00080F700FA07F6C7F120071EBF20FA07FCC7
:1002F00046EA0C062037B6FBF4FCA7EB0507103FD7
:1003000007F01F0BCBF120060CFA0BFB2CFA06F6BC
:1003100044BFB3460026202FA4BF5E464FF0000B1B
:100320005BEA060C08BF4FF0010B19EB0B09ABFBA6
:10033000027C48EB0608C01B06FB02CC0BFB03CC7F
:1003400071EB0C01C1E70B46024641464846BDE849
:10035000F08B13B54FF000004FF00001AFF30080B9
:10036000BDE81C40704710B5203AC0F00B80B1E8E2
:100370001850203AA0E81850B1E81850A0E81850DA
:10038000BFF4F5AF5FEA027C24BFB1E81850A0E8E3
:10039000185044BF18C918C0BDE810405FEA827CFD
:1003A00024BF51F8043B40F8043B08BF7047D20714
:1003B00028BF31F8023B48BF11F8012B28BF20F8B5
:1003C000023B48BF00F8012B70474FF0000200B518
:1003D000134694469646203922BFA0E80C50A0E868
:1003E0000C50B1F12001BFF4F7AF090728BFA0E816
:1003F0000C5048BF0CC05DF804EB890028BF40F8E2
:10040000042B08BF704748BF20F8022B11F0804F23
:1004100018BF00F8012B704770477047704775464A
:1004200000F02CF8AE4605006946534620F0070060
:10043000854618B020B5FFF70DFFBDE820404FF00E
:1004400000064FF000074FF000084FF0000B21F0BE
:100450000701AC46ACE8C009ACE8C009ACE8C0098B
:10046000ACE8C0098D46704710B50446AFF3008074
:100470002046BDE81040FFF7D8BE00000048704796
:10048000C000002001491820ABBEFEE72600020094
:10049000704700BFFEE7704772B600BFFEE700007E
:1004A00010B5002201B909E0012901D10A0205E0D5
:1004B000022901D10A0201E04FF440720E4B1B6881
:1004C00023F440730C4C236023461B6813432360C2
:1004D00023461B6823F0F803236023461B6802248D
:1004E00044EAC0042343044C236023461B6843F4BE
:1004F0008033236010BD0000103C02401C4800689F
:1005000000F40070B0B11A48006820F40070184977
:10051000086000BF0846006840F4006008600846B4
:10052000006820F40060086000BF0846006840F4DE
:10053000007008600E48006800F48060B0B10C489C
:10054000006820F480600A49086000BF084600681F
:1005500040F4805008600846006820F4805008602D
:1005600000BF0846006840F48060086070470000E3
:10057000003C02400A4A126822F44072084B1A609A
:100580001A46126842F004021A601A4612684FF4C2
:10059000803343EA00231A43014B1A60704700007E
:1005A000103C0240074A126822F44072054B1A6060
:1005B0001A4612681A601A46126842F001021A605E
:1005C00001707047103C024010B50A49096821F4D7
:1005D0004071084C21602146096841F44071216056
:1005E0002146096841F0010121600260BFF36F8F6D
:1005F000436010BD103C0240084A126822F4407269
:10060000064B1A601A46126842F480721A601A4643
:10061000126842F001021A6001807047103C0240EB
:10062000084A126822F44072064B1A601A46126891
:1006300042F400721A601A46126842F001021A600F
:1006400001607047103C02402A48006800F010002A
:1006500040B12948C06940F010002749C861102006
:10066000244908602348006800F0200040B1224877
:10067000C06940F008002049C86120201D49086079
:100680001C48006800F0400040B11B48C06940F0C1
:1006900004001949C86140201649086015480068DF
:1006A00000F0800040B11448C06940F002001249D7
:1006B000C86180200F4908600E48006800F480700F
:1006C00048B10D48C06940F001000B49C8614FF4C2
:1006D0008070084908600748006800F0020040B1D7
:1006E0000548C06940F020000349C8610220014963
:1006F000086070470C3C02400000002070B50446C2
:10070000002500201449C86100F090FA054609E070
:10071000601C38B124B100F089FA401BA04201D915
:10072000032070BD0D48006800F480300028EFD130
:100730000A48006800F0010010B101200749086074
:100740000648006800F4F97018B1FFF77DFF01203A
:10075000E7E70020E5E70000000000200C3C024035
:1007600070B5044600F062FA06462546681C10B1D2
:1007700004480078054400BF00F058FA801BA842E6
:10078000FAD370BD280000202DE9F04104460F4641
:10079000002600BF2548007E012802D10220BDE8C6
:1007A000F08101202149087600BF4CF25030FFF75C
:1007B000A5FF0546002D31D1401E38602068012874
:1007C0000FD1207C6168FFF7D5FE4CF25030FFF767
:1007D00095FF05461648006820F00400144908609B
:1007E0001AE0A66812E0217C3046FFF759FE4CF271
:1007F0005030FFF783FF05460D48006820F0FA00EF
:100800000B4908600DB13E6005E0761CD4E902108A
:100810000844B042E7D800BFFFF770FE00BF0020D9
:100820000249087600BF2846B9E700000000002012
:10083000103C02400348006840F000400149086055
:1008400000207047103C02402DE9F04106468846E2
:1008500014461D4600BF1E48007E012802D102201A
:10086000BDE8F08101201A49087600BF4CF25030F3
:10087000FFF744FF07461FBB26B9E1B24046FFF72A
:1008800091FE12E0012E04D1A1B24046FFF7B4FE62
:100890000BE0022E04D121464046FFF7C1FE04E0E2
:1008A00022462B464046FFF78FFE4CF25030FFF7B2
:1008B00025FF07460748006820F001000549086049
:1008C00000BF00200249087600BF3846C8E7000094
:1008D00000000020103C024000200949096801F096
:1008E000004159B10749064A0C3A116006491160A6
:1008F0000349096801F0004101B10120704700007F
:10090000103C024023016745AB89EFCDF0B50C46A2
:10091000002500220023002183E0012606FA01F5CC
:1009200004EA0502AA427BD1404E8F0856F82730D0
:100930008E07370F0F26BE4033403D4EB04201D1E7
:10094000002614E03B4EB04201D101260FE03A4EA2
:10095000B04201D102260AE0384EB04201D103264E
:1009600005E0374EB04201D1042600E007268F078C
:100970003F0FBE409E4224D1324E36689643314FDF
:100980003E603E1D366896433F1D3E602D4E0C3640
:10099000366896432B4F0C373E603E1F36689643B1
:1009A0003F1F3E608E07370F0F2606FA07F31F4ED4
:1009B0008F0856F827609E431C4F4FEA910C47F86A
:1009C0002C6006684FEA410C032707FA0CF7BE4378
:1009D0000660CF0800F1200656F827604F074FEA5F
:1009E000D76C0F2707FA0CF7BE434FEAD10C00F182
:1009F000200747F82C60C6684FEA410C032707FA26
:100A00000CF7BE43C660466801278F40BE43466070
:100A100086684FEA410C032707FA0CF7BE4386604D
:100A2000491C1029FFF479AFF0BD000008380140DF
:100A3000000002400004024000080240000C024096
:100A400000100240003C0140F8B502460B4600256C
:100A5000002400200021C7E0012606FA01F51E68E7
:100A600006EA0504AC4274D11E7906F00306012E95
:100A700004D01E7906F00306022E13D190684F00B1
:100A80000326BE40B0434F00DE68BE403043906056
:100A9000506801268E40B0431E79C6F300168E4082
:100AA000304350601E7906F00306032E09D0D0684B
:100AB0004F000326BE40B0434F009E68BE40304307
:100AC000D0601E7906F00306022E13D1CF0802F182
:100AD000200656F827004E07F70E0F26BE40B043FB
:100AE0004F07FF0E1E69BE403043CF0802F12006BB
:100AF00046F8270010684F000326BE40B0431E7919
:100B000006F003064F00BE40304310605E6806F4F6
:100B10004036002E67D000BF00260096344E36685F
:100B200046F48046324F3E603E46366806F48046C4
:100B3000009600BF00BF2F4E8F0856F827008E0783
:100B4000370F0F26BE40B0432B4EB24202D10026D3
:100B500015E048E0294EB24201D101260FE0284EAF
:100B6000B24201D102260AE0264EB24201D103264A
:100B700005E0254EB24201D1042600E007268F078A
:100B80003F0FBE4030431B4E8F0846F827001F4ED4
:100B90003068A0435E6806F4801606B120431B4E01
:100BA0003060361D3068A0435E6806F4001606B15A
:100BB0002043164E361D3060144E361F3068A04359
:100BC0005E6806F4003606B12043104E361F3060D2
:100BD000361F3068A0435E6806F4803606B12043B5
:100BE0000A4E083E3060491C1029FFF435AFF8BDAD
:100BF000443802400838014000000240000402402E
:100C000000080240000C024000100240083C014075
:100C1000024613690B400BB1012000E00020704731
:100C20000AB1816101E00B048361704701480068EB
:100C3000704700002000002003480068034909783D
:100C40000844014908607047200000202800002067
:100C500010B50D48006840F400700B490860084664
:100C6000006840F4806008600846006840F48070C6
:100C70000860032000F092F80F2000F007F800F061
:100C80002BF8002010BD0000003C024070B5044667
:100C90000E4800784FF47A71B1FBF0F00C49096806
:100CA000B1FBF0F5284600F0F5FB08B1012070BD5E
:100CB000102C07D200222146501E00F031F80548C2
:100CC000046001E00120F2E70020F0E728000020A6
:100CD0002C0000202400002008B500BF0020009058
:100CE0000E48006840F480400C49086008460068DF
:100CF00000F48040009000BF00BF00BF00200090C3
:100D0000081F006840F08050091F0860084600680E
:100D100000F08050009000BF00BF08BD4438024082
:100D20002DE9F05F80460D461646002700F094FC42
:100D3000074639462A46334601F00700C0F1070A44
:100D4000BAF1040F02D94FF0040A01E0C0F1070A1A
:100D5000D14600F1040ABAF1070F02D24FF0000A9F
:100D600001E0A0F1030AD4464FF0010A0AFA09FA99
:100D7000AAF1010A0AEA020A0AFA0CFA4FF0010B78
:100D80000BFA0CFBABF1010B0BEA030B4AEA0B0469
:100D90002146404600F068FCBDE8F09F00BF00F02F
:100DA0000702064B19684FF6FF031940044B0B432B
:100DB00043EA0221014B196000BF70470CED00E0CF
:100DC0000000FA0570B504460D460CB9012070BD4F
:100DD0005848006800F00700A84209D255490D7034
:100DE0000846006800F00700A84201D00120EEE7A5
:100DF000207800F0020002281DD1207800F00400C5
:100E0000042805D14C48006840F4E0504A49086085
:100E1000207800F00800082805D14748006840F411
:100E20006040454908604448006820F0F000A1682F
:100E3000084341490860207800F00100A8B36068C9
:100E4000012807D13C4808380068C0F34040B8B9D1
:100E50000120BCE76068022802D06068032807D13F
:100E6000354808380068C0F3406048B90120AEE753
:100E7000314808380068C0F3400008B90120A6E7EF
:100E80002D48006820F00300616808432A49086083
:100E9000FFF7CCFE064609E0FFF7C8FE801B41F2D3
:100EA0008831884202D9032091E707E02248006890
:100EB00000F00C006168B0EB810FEDD11D480068B7
:100EC00000F00700A84209D91A490D7008460068C9
:100ED00000F00700A84201D0012078E7207800F058
:100EE0000400042807D11448006820F4E050E168A9
:100EF000084311490860207800F00800082808D14C
:100F00000D48006820F46040216940EAC1000A49A8
:100F1000086000F019F808490968C1F30311074A8D
:100F2000515CC8400649086006480068FFF7AEFEFD
:100F300000204CE7003C024008380240461D0008F3
:100F40002C000020240000202DE9F047002400257B
:100F50000026A1462548006800F00C0020B10428B6
:100F600005D008283AD105E0DFF8849039E0DFF8B1
:100F7000849036E01D48001F006800F03F041B48C5
:100F8000001F006800F4800078B11A481749091F53
:100F90000968C1F38811A0FB0170014622460023B5
:100FA0003846FFF769F905460EE011480F49091F59
:100FB0000968C1F38811A0FB017001462246002395
:100FC0003846FFF759F905460848001F0068C0F386
:100FD0000140401C4600B5FBF6F902E0DFF8109036
:100FE00000BF00BF4846BDE8F08700000838024057
:100FF0000024F40040787D01F8B504460CB90120C6
:10100000F8BD207800F00100002874D0F94800688D
:1010100000F00C0004280DD0F648006800F00C0029
:10102000082813D1F348001F006800F48000B0F5D1
:10103000800F0BD1EF4808380068C0F3404000280B
:1010400059D06068002856D10120D9E700BF6068F8
:10105000B0F5803F08D1E7480838006840F4803098
:10106000E449083908601EE06068B0F5A02F0DD192
:10107000E0480838006840F48020DE4908390860FC
:101080000846006840F4803008600CE0D948083811
:10109000006820F48030D7490839086008460068A5
:1010A00020F48020086000BF606890B1FFF7BEFDAB
:1010B000054606E0FFF7BAFD401B642801D903206E
:1010C0009EE7CC4808380068C0F340400028F1D0C3
:1010D00011E0FFF7ABFD054606E0FFF7A7FD401B5B
:1010E000642801D903208BE7C24808380068C0F3A0
:1010F00040400028F1D1207800F0020002285FD1A2
:10110000BC48006800F00C0058B1BA48006800F014
:101110000C0008281CD1B748001F006800F48000AC
:10112000B0B9B44808380068C0F3400020B1E068A6
:10113000012801D0012063E7AE480838006820F09C
:10114000F800216940EAC100AA490839086037E07F
:10115000E06800B30120A8490860FFF767FD054675
:1011600006E0FFF763FD401B022801D9032047E793
:10117000A04808380068C0F340000028F1D09D481E
:101180000838006820F0F800216940EAC100994958
:101190000839086014E0002097490860FFF746FD11
:1011A000054606E0FFF742FD401B022801D9032057
:1011B00026E7904808380068C0F340000028F1D1C5
:1011C000207800F0080008282CD16069A8B101201F
:1011D0008A490860FFF72AFD054606E0FFF726FD6D
:1011E000401B022801D903200AE782486C300068BE
:1011F000C0F340000028F1D014E000207F490860CF
:10120000FFF714FD054606E0FFF710FD401B02281E
:1012100001D90320F4E677486C300068C0F3400041
:101220000028F1D1207800F00400042870D10027B4
:1012300070483830006800F0805090B900BF00203E
:1012400000906C483830006840F08050694938316F
:1012500008600846006800F08050009000BF00BFA2
:1012600001276748006800F48070B0B964480068DE
:1012700040F4807062490860FFF7D8FC054606E03C
:10128000FFF7D4FC401B022801D90320B8E65C48D4
:10129000006800F480700028F2D000BFA068012828
:1012A00008D154486830006840F001005149683165
:1012B00008601DE0A06805280DD14E486830006820
:1012C00040F004004B49683108600846006840F06F
:1012D000010008600CE047486830006820F0010019
:1012E0004449683108600846006820F0040008603E
:1012F00000BFA068A8B1FFF799FC054609E0FFF719
:1013000095FC401B41F28831884202D9032077E6E0
:1013100026E0384868300068C0F340000028EED06E
:1013200013E0FFF783FC054608E0FFF77FFC401B56
:1013300041F28831884201D9032061E62D486830A6
:101340000068C0F340000028EFD1012F07D12948E1
:101350003830006820F0805026493831086000BFDE
:10136000A069002845D02348006800F00C00082838
:101370005DD0A069022845D100201F490866FFF70B
:1013800055FC054606E0FFF751FC401B022801D939
:10139000032035E6174808380068C0F3406000288D
:1013A000F1D1D4E907010843616A40EA81110122C1
:1013B000A06AC2EB500041EA00412C20005D41EAE6
:1013C00000600C49091F086001200B490866FFF7FF
:1013D0002DFC054606E0FFF729FC401B022801D939
:1013E00003200DE6034808380068C0F34060002879
:1013F000F1D049E00838024000004742800E4742E1
:1014000000700040002021490866FFF70FFC0546E8
:1014100006E0FFF70BFC401B022801D90320EFE593
:101420001B480068C0F340600028F2D12CE0A0699E
:10143000012800D1E4E51648001D0668A0690128CE
:1014400020D006F48001E06981421BD106F03F0103
:10145000206A814216D147F6C0703040616AB0EB15
:10146000811F0FD106F440310122A06AC2EB500067
:10147000B1EB004F06D106F070612C20005DB1EB9E
:10148000006F01D00120BBE50020B9E50000474214
:101490000038024070B504462546681EB0F1807FD2
:1014A00001D301200FE0681E4FF0E02148610F21B9
:1014B0004FF0FF3000F0D8F800204FF0E0218861B5
:1014C00007200861002070BD00BFFEE700B587B0AF
:1014D000142102A8FEF779FF00BF002001902448E4
:1014E000006840F00400224908600846006800F0E7
:1014F0000400019000BF00BF00BF0020019008461B
:10150000006840F0800008600846006800F0800035
:10151000019000BF00BF00BF002001900846006896
:1015200040F0010008600846006800F001000190EA
:1015300000BF00BF012251030E48FFF771FB4FF4BB
:10154000005002900120039004900020059002A911
:101550000848FFF779FA012002900020039001204B
:10156000049002A90448FFF76FFA07B000BD00001D
:1015700030380240000802400000024000BFFEE791
:1015800000BFFEE77047704710B5FFF755FB10BD71
:1015900000B593B0302107A8FEF717FF142102A869
:1015A000FEF713FF00BF002001902348006840F0C1
:1015B0008050214908600846006800F08050019082
:1015C00000BF00BF00BF002001901C48006840F42D
:1015D00040401A4908600846006800F44040019005
:1015E00000BF00BF012007900004089002200D906A
:1015F00041050E910C210F91602110910221119152
:101600000421129107A8FFF7F7FC08B1FEF744FF89
:101610000F20029002200390002004904FF480508D
:10162000059000200690032102A8FFF7CBFB08B12C
:10163000FEF732FF13B000BD40380240007000409A
:101640000348006840F470000149086070470000DA
:1016500088ED00E000BFFEE702480068C0F302200A
:10166000704700000CED00E010B5002804DB0A070D
:10167000130E054A135406E00A07140E034A00F03D
:101680000F031B1FD45410BD00E400E018ED00E070
:1016900000B9704700BFFCE710B586B004460CB92E
:1016A00006B010BD00BF002000901248006840F056
:1016B0000400104908600846006800F0040000902B
:1016C00000BF00BF012251030B48FFF7A9FA142104
:1016D00001A8FEF77AFE4FF400500190012002901D
:1016E00003900020049001A90348FFF7ADF900BF63
:1016F000D6E70000303802400008024010B504462A
:1017000004B910BD012251030248FFF789FA00BF56
:10171000F7E700000008024010B5044604B910BD08
:1017200000224FF400510248FFF77AFA00BFF6E7B3
:101730000008024000B9704700BFFCE700B97047DD
:1017400000BFFCE710B50446FFF770FA206010BD3B
:1017500010B5044604B910BD01210248FFF7D6F8C0
:1017600000BFF8E70000024010B586B004460CB98F
:1017700006B010BD00BF002000900E48006840F089
:1017800001000C4908600846006800F00100009064
:1017900000BF00BF142101A8FEF717FE0120019031
:1017A000002002900120039001A90348FFF74CF9A3
:1017B00000BFDDE7303802400000024070B505464A
:1017C0000C4605B970BD01210548FFF721FA10B993
:1017D0000120207001E00020207000BFF2E700002F
:1017E0000000024000B9704700BFFCE700B9704735
:1017F00000BFFCE710B588B0044620216846FEF71C
:10180000E4FD6946002000F0F7F9207A00F00F00AF
:10181000072817D2DFE800F0160405061314150098
:1018200011E010E0684600F013FA6420FEF798FF1C
:10183000684600F002FA6420FEF792FF03E002E03F
:1018400001E000E000BF00BF08B010BD00B9704764
:1018500000BFFCE72DE9F04186B007460C4615466F
:1018600000200590002680463FB14348844204D3BF
:1018700060194249884200D815B906B0BDE8F08128
:10188000FFF72AF83C48844201D2002621E03C4878
:10189000844201D201261CE03A48844201D2022649
:1018A00017E03948844201D2032612E037488442C7
:1018B00001D204260DE03648844201D2052608E014
:1018C0003448844201D2062603E02C48844200D2E8
:1018D000072660192A49884204D8C6F1020000F0A0
:1018E000FF0834E060192749884204D8C6F1030094
:1018F00000F0FF082BE060192349884204D8C6F1A4
:10190000040000F0FF0822E060192049884204D852
:10191000C6F1050000F0FF0819E060191C49884273
:1019200004D8C6F1060000F0FF0810E0601919495C
:10193000884204D8C6F1070000F0FF0807E06019EC
:101940000E49884203D8C6F1080000F0FF080020C5
:101950000090022004900296CDF80C8001200190A6
:1019600005A96846FEF710FF10B1FEF763FF84E794
:10197000FEF760FF00BF80E7004000080000080895
:101980000080000800C000080000010800000208F4
:10199000000004080000060800B9704700BFFCE71B
:1019A00030B5044604B102B930BD002002E00D5C40
:1019B0001554401C9842FAD300BFF5E72DE9F041D9
:1019C00080460C4616461F46B8F1000F07D036B1C8
:1019D000E0190F49884202D80E48844201D2BDE87E
:1019E000F081FEF779FF00250CE016F805C06119BB
:1019F000624600231846FEF727FF10B1FEF71AFFD4
:101A0000EDE76D1CBD42F0D3FEF714FF00BFE6E723
:101A1000000008080040000800B587B01C220549F6
:101A20006846FEF7A0FC6946002000F05BF8002045
:101A300007B000BDB81D000810B58EB004463822AE
:101A400005496846FEF78FFC0A946946002000F0BD
:101A500099F800200EB010BD801D000800B589B0B7
:101A60002022054901A8FEF77EFC01A9019800F09B
:101A7000FBF8002009B000BD601D000870B50446E9
:101A80000D46022C00D80DB9012070BDC4EBC40076
:101A9000044A02EB80011C222846FEF764FC002069
:101AA000F3E700008800002010B5044654B1206818
:101AB000022807D22068C0EBC000094901EB800072
:101AC000806808B9012010BD2068C0EBC000044A3E
:101AD00002EB80008168204688470020F3E7000081
:101AE0008800002010B5024609B1022A01D3012066
:101AF00010BDC2EBC200154B43F82020C2EBC2035D
:101B0000124C04EB830348685860C2EBC20304EB39
:101B1000830388689860C2EBC20304EB8303C86840
:101B2000D860C2EBC20304EB830308691861C2EBFF
:101B3000C20304EB830348695861C2EBC20304EBA0
:101B40008303886998610020D2E7000088000020A4
:101B5000024602B909B901207047C2EBC200024B2C
:101B600003EBC0010020F7E75000002010B5044649
:101B70000CB1E06908B9012010BD2046E169884731
:101B80000020F9E710B5024609B9012010BDC2EBEB
:101B9000C200184B43F83020C2EBC203154C04EBD3
:101BA000C303C869D861C2EBC20304EBC303086A6C
:101BB0001862C2EBC20304EBC303486A5862C2EB6B
:101BC000C20304EBC303C86AD862C2EBC20304EBCE
:101BD000C303086B1863C2EBC20304EBC303486B77
:101BE0005863C2EBC20304EBC303886A9862002007
:101BF000CCE700005000002070B504460D460848B0
:101C000000EB4410806800B10DB9022070BD04489B
:101C100000EB441120222846FEF7A5FB0020F5E743
:101C20003000002010B50446A06808B9022010BD9D
:101C30002046A16888470020F9E710B5044660698E
:101C400008B9022010BD2046616988470020F9E7E5
:101C500010B50446206908B9022010BD204621694C
:101C600088470020F9E70000024609B902207047C2
:101C7000144800EB42100260124B03EB4213486819
:101C80005860104B03EB4213886898600D4B03EBD0
:101C90004213C868D8600B4B03EB42130869186104
:101CA000084B03EB421348695861064B03EB4213A0
:101CB00088699861034B03EB4213C869D86100201F
:101CC000D5E70000300000209EB0FFF7B9FCFEF71A
:101CD000BFFFFFF75DFCFFF7F9FBFFF7BFFE1648FC
:101CE000FFF7AAFEFFF798FE202116A8FEF76DFB6E
:101CF00016A90020FFF780FF16A8FFF793FF3821F1
:101D000008A8FEF762FB08A90020FFF721FF08A83A
:101D1000FFF72CFF1C2101A8FEF757FB01A90020AB
:101D2000FFF7ACFE01A8FFF7BFFE03E04FF47A70A7
:101D3000FEF716FDFAE70000F51700084FF04070B7
:101D4000E1EE100A704700000000000000000102F0
:101D50000304060708090000000001020304000054
:101D6000000000000000000099160008911600080D
:101D700019170008FD160008351700083D17000860
:101D80000000000000000000000000000000000053
:101D900000000000000000000000000069170008BB
:101DA00051170008BD17000800000000E5170008E3
:101DB000ED170008451700080000000000000000B3
:101DC000991900084D18000855180008BD19000899
:101DD000A1190008F41D00080000002030000000D8
:101DE000D4010008241E000830000020F006000086
:101DF000F0010008000000000000000000000000EA
:101E000000000000010000000000000000000000D1
:101E100000000000000000001000000001000000B1
:041E20000024F400A6
:040000050800019955
:00000001FF
